{
    "contractName": "HealthCredentialNFT",
    "abi": [
        {
            "inputs": [
                {
                    "internalType": "address",
                    "name": "initialOwner",
                    "type": "address"
                }
            ],
            "stateMutability": "nonpayable",
            "type": "constructor"
        },
        {
            "inputs": [
                {
                    "internalType": "address",
                    "name": "sender",
                    "type": "address"
                },
                {
                    "internalType": "uint256",
                    "name": "tokenId",
                    "type": "uint256"
                },
                {
                    "internalType": "address",
                    "name": "owner",
                    "type": "address"
                }
            ],
            "name": "ERC721IncorrectOwner",
            "type": "error"
        },
        {
            "inputs": [
                {
                    "internalType": "address",
                    "name": "operator",
                    "type": "address"
                },
                {
                    "internalType": "uint256",
                    "name": "tokenId",
                    "type": "uint256"
                }
            ],
            "name": "ERC721InsufficientApproval",
            "type": "error"
        },
        {
            "inputs": [
                {
                    "internalType": "address",
                    "name": "approver",
                    "type": "address"
                }
            ],
            "name": "ERC721InvalidApprover",
            "type": "error"
        },
        {
            "inputs": [
                {
                    "internalType": "address",
                    "name": "operator",
                    "type": "address"
                }
            ],
            "name": "ERC721InvalidOperator",
            "type": "error"
        },
        {
            "inputs": [
                {
                    "internalType": "address",
                    "name": "owner",
                    "type": "address"
                }
            ],
            "name": "ERC721InvalidOwner",
            "type": "error"
        },
        {
            "inputs": [
                {
                    "internalType": "address",
                    "name": "receiver",
                    "type": "address"
                }
            ],
            "name": "ERC721InvalidReceiver",
            "type": "error"
        },
        {
            "inputs": [
                {
                    "internalType": "address",
                    "name": "sender",
                    "type": "address"
                }
            ],
            "name": "ERC721InvalidSender",
            "type": "error"
        },
        {
            "inputs": [
                {
                    "internalType": "uint256",
                    "name": "tokenId",
                    "type": "uint256"
                }
            ],
            "name": "ERC721NonexistentToken",
            "type": "error"
        },
        {
            "inputs": [
                {
                    "internalType": "address",
                    "name": "owner",
                    "type": "address"
                }
            ],
            "name": "OwnableInvalidOwner",
            "type": "error"
        },
        {
            "inputs": [
                {
                    "internalType": "address",
                    "name": "account",
                    "type": "address"
                }
            ],
            "name": "OwnableUnauthorizedAccount",
            "type": "error"
        },
        {
            "anonymous": false,
            "inputs": [
                {
                    "indexed": true,
                    "internalType": "address",
                    "name": "owner",
                    "type": "address"
                },
                {
                    "indexed": true,
                    "internalType": "address",
                    "name": "approved",
                    "type": "address"
                },
                {
                    "indexed": true,
                    "internalType": "uint256",
                    "name": "tokenId",
                    "type": "uint256"
                }
            ],
            "name": "Approval",
            "type": "event"
        },
        {
            "anonymous": false,
            "inputs": [
                {
                    "indexed": true,
                    "internalType": "address",
                    "name": "owner",
                    "type": "address"
                },
                {
                    "indexed": true,
                    "internalType": "address",
                    "name": "operator",
                    "type": "address"
                },
                {
                    "indexed": false,
                    "internalType": "bool",
                    "name": "approved",
                    "type": "bool"
                }
            ],
            "name": "ApprovalForAll",
            "type": "event"
        },
        {
            "anonymous": false,
            "inputs": [
                {
                    "indexed": false,
                    "internalType": "uint256",
                    "name": "_fromTokenId",
                    "type": "uint256"
                },
                {
                    "indexed": false,
                    "internalType": "uint256",
                    "name": "_toTokenId",
                    "type": "uint256"
                }
            ],
            "name": "BatchMetadataUpdate",
            "type": "event"
        },
        {
            "anonymous": false,
            "inputs": [
                {
                    "indexed": false,
                    "internalType": "uint256",
                    "name": "_tokenId",
                    "type": "uint256"
                }
            ],
            "name": "MetadataUpdate",
            "type": "event"
        },
        {
            "anonymous": false,
            "inputs": [
                {
                    "indexed": true,
                    "internalType": "address",
                    "name": "previousOwner",
                    "type": "address"
                },
                {
                    "indexed": true,
                    "internalType": "address",
                    "name": "newOwner",
                    "type": "address"
                }
            ],
            "name": "OwnershipTransferred",
            "type": "event"
        },
        {
            "anonymous": false,
            "inputs": [
                {
                    "indexed": true,
                    "internalType": "address",
                    "name": "from",
                    "type": "address"
                },
                {
                    "indexed": true,
                    "internalType": "address",
                    "name": "to",
                    "type": "address"
                },
                {
                    "indexed": true,
                    "internalType": "uint256",
                    "name": "tokenId",
                    "type": "uint256"
                }
            ],
            "name": "Transfer",
            "type": "event"
        },
        {
            "inputs": [
                {
                    "internalType": "address",
                    "name": "to",
                    "type": "address"
                },
                {
                    "internalType": "uint256",
                    "name": "tokenId",
                    "type": "uint256"
                }
            ],
            "name": "approve",
            "outputs": [],
            "stateMutability": "nonpayable",
            "type": "function"
        },
        {
            "inputs": [
                {
                    "internalType": "address",
                    "name": "owner",
                    "type": "address"
                }
            ],
            "name": "balanceOf",
            "outputs": [
                {
                    "internalType": "uint256",
                    "name": "",
                    "type": "uint256"
                }
            ],
            "stateMutability": "view",
            "type": "function",
            "constant": true
        },
        {
            "inputs": [
                {
                    "internalType": "uint256",
                    "name": "tokenId",
                    "type": "uint256"
                }
            ],
            "name": "getApproved",
            "outputs": [
                {
                    "internalType": "address",
                    "name": "",
                    "type": "address"
                }
            ],
            "stateMutability": "view",
            "type": "function",
            "constant": true
        },
        {
            "inputs": [
                {
                    "internalType": "address",
                    "name": "owner",
                    "type": "address"
                },
                {
                    "internalType": "address",
                    "name": "operator",
                    "type": "address"
                }
            ],
            "name": "isApprovedForAll",
            "outputs": [
                {
                    "internalType": "bool",
                    "name": "",
                    "type": "bool"
                }
            ],
            "stateMutability": "view",
            "type": "function",
            "constant": true
        },
        {
            "inputs": [],
            "name": "name",
            "outputs": [
                {
                    "internalType": "string",
                    "name": "",
                    "type": "string"
                }
            ],
            "stateMutability": "view",
            "type": "function",
            "constant": true
        },
        {
            "inputs": [],
            "name": "owner",
            "outputs": [
                {
                    "internalType": "address",
                    "name": "",
                    "type": "address"
                }
            ],
            "stateMutability": "view",
            "type": "function",
            "constant": true
        },
        {
            "inputs": [
                {
                    "internalType": "uint256",
                    "name": "tokenId",
                    "type": "uint256"
                }
            ],
            "name": "ownerOf",
            "outputs": [
                {
                    "internalType": "address",
                    "name": "",
                    "type": "address"
                }
            ],
            "stateMutability": "view",
            "type": "function",
            "constant": true
        },
        {
            "inputs": [],
            "name": "renounceOwnership",
            "outputs": [],
            "stateMutability": "nonpayable",
            "type": "function"
        },
        {
            "inputs": [
                {
                    "internalType": "address",
                    "name": "from",
                    "type": "address"
                },
                {
                    "internalType": "address",
                    "name": "to",
                    "type": "address"
                },
                {
                    "internalType": "uint256",
                    "name": "tokenId",
                    "type": "uint256"
                }
            ],
            "name": "safeTransferFrom",
            "outputs": [],
            "stateMutability": "nonpayable",
            "type": "function"
        },
        {
            "inputs": [
                {
                    "internalType": "address",
                    "name": "from",
                    "type": "address"
                },
                {
                    "internalType": "address",
                    "name": "to",
                    "type": "address"
                },
                {
                    "internalType": "uint256",
                    "name": "tokenId",
                    "type": "uint256"
                },
                {
                    "internalType": "bytes",
                    "name": "data",
                    "type": "bytes"
                }
            ],
            "name": "safeTransferFrom",
            "outputs": [],
            "stateMutability": "nonpayable",
            "type": "function"
        },
        {
            "inputs": [
                {
                    "internalType": "address",
                    "name": "operator",
                    "type": "address"
                },
                {
                    "internalType": "bool",
                    "name": "approved",
                    "type": "bool"
                }
            ],
            "name": "setApprovalForAll",
            "outputs": [],
            "stateMutability": "nonpayable",
            "type": "function"
        },
        {
            "inputs": [
                {
                    "internalType": "bytes4",
                    "name": "interfaceId",
                    "type": "bytes4"
                }
            ],
            "name": "supportsInterface",
            "outputs": [
                {
                    "internalType": "bool",
                    "name": "",
                    "type": "bool"
                }
            ],
            "stateMutability": "view",
            "type": "function",
            "constant": true
        },
        {
            "inputs": [],
            "name": "symbol",
            "outputs": [
                {
                    "internalType": "string",
                    "name": "",
                    "type": "string"
                }
            ],
            "stateMutability": "view",
            "type": "function",
            "constant": true
        },
        {
            "inputs": [
                {
                    "internalType": "uint256",
                    "name": "tokenId",
                    "type": "uint256"
                }
            ],
            "name": "tokenURI",
            "outputs": [
                {
                    "internalType": "string",
                    "name": "",
                    "type": "string"
                }
            ],
            "stateMutability": "view",
            "type": "function",
            "constant": true
        },
        {
            "inputs": [
                {
                    "internalType": "address",
                    "name": "from",
                    "type": "address"
                },
                {
                    "internalType": "address",
                    "name": "to",
                    "type": "address"
                },
                {
                    "internalType": "uint256",
                    "name": "tokenId",
                    "type": "uint256"
                }
            ],
            "name": "transferFrom",
            "outputs": [],
            "stateMutability": "nonpayable",
            "type": "function"
        },
        {
            "inputs": [
                {
                    "internalType": "address",
                    "name": "newOwner",
                    "type": "address"
                }
            ],
            "name": "transferOwnership",
            "outputs": [],
            "stateMutability": "nonpayable",
            "type": "function"
        },
        {
            "inputs": [
                {
                    "internalType": "address",
                    "name": "to",
                    "type": "address"
                },
                {
                    "internalType": "string",
                    "name": "tokenURI",
                    "type": "string"
                }
            ],
            "name": "mintTo",
            "outputs": [
                {
                    "internalType": "uint256",
                    "name": "",
                    "type": "uint256"
                }
            ],
            "stateMutability": "nonpayable",
            "type": "function"
        }
    ],
    "bytecode": "0x608060405234801562000010575f80fd5b50604051620016633803806200166383398101604081905262000033916200013c565b806040518060400160405280601581526020017f4865616c74682043726564656e7469616c204e46540000000000000000000000815250604051806040016040528060058152602001641210d3919560da1b815250815f90816200009891906200020b565b506001620000a782826200020b565b5050506001600160a01b038116620000d857604051631e4fbdf760e01b81525f600482015260240160405180910390fd5b620000e381620000eb565b5050620002d3565b600780546001600160a01b038381166001600160a01b0319831681179093556040519116919082907f8be0079c531659141344cd1fd0a4f28419497f9722a3daafe3b4186f6b6457e0905f90a35050565b5f602082840312156200014d575f80fd5b81516001600160a01b038116811462000164575f80fd5b9392505050565b634e487b7160e01b5f52604160045260245ffd5b600181811c908216806200019457607f821691505b602082108103620001b357634e487b7160e01b5f52602260045260245ffd5b50919050565b601f82111562000206575f81815260208120601f850160051c81016020861015620001e15750805b601f850160051c820191505b818110156200020257828155600101620001ed565b5050505b505050565b81516001600160401b038111156200022757620002276200016b565b6200023f816200023884546200017f565b84620001b9565b602080601f83116001811462000275575f84156200025d5750858301515b5f19600386901b1c1916600185901b17855562000202565b5f85815260208120601f198616915b82811015620002a55788860151825594840194600190910190840162000284565b5085821015620002c357878501515f19600388901b60f8161c191681555b5050505050600190811b01905550565b61138280620002e15f395ff3fe608060405234801561000f575f80fd5b5060043610610105575f3560e01c806370a082311161009e578063a22cb4651161006e578063a22cb46514610214578063b88d4fde14610227578063c87b56dd1461023a578063e985e9c51461024d578063f2fde38b14610260575f80fd5b806370a08231146101e0578063715018a6146101f35780638da5cb5b146101fb57806395d89b411461020c575f80fd5b8063095ea7b3116100d9578063095ea7b31461019257806323b872dd146101a757806342842e0e146101ba5780636352211e146101cd575f80fd5b806275a3171461010957806301ffc9a71461012f57806306fdde0314610152578063081812fc14610167575b5f80fd5b61011c610117366004610f10565b610273565b6040519081526020015b60405180910390f35b61014261013d366004610f83565b6102b4565b6040519015158152602001610126565b61015a6102d8565b6040516101269190610feb565b61017a610175366004610ffd565b610367565b6040516001600160a01b039091168152602001610126565b6101a56101a0366004611014565b61038e565b005b6101a56101b536600461103c565b61039d565b6101a56101c836600461103c565b61042b565b61017a6101db366004610ffd565b61044a565b61011c6101ee366004611075565b610454565b6101a5610499565b6007546001600160a01b031661017a565b61015a6104ac565b6101a561022236600461108e565b6104bb565b6101a56102353660046110c7565b6104c6565b61015a610248366004610ffd565b6104de565b61014261025b36600461113e565b6105e9565b6101a561026e366004611075565b610616565b5f61027c610653565b6008546102898482610680565b61029381846106e1565b600160085f8282546102a5919061116f565b90915550909150505b92915050565b5f6001600160e01b03198216632483248360e11b14806102ae57506102ae82610730565b60605f80546102e69061118e565b80601f01602080910402602001604051908101604052809291908181526020018280546103129061118e565b801561035d5780601f106103345761010080835404028352916020019161035d565b820191905f5260205f20905b81548152906001019060200180831161034057829003601f168201915b5050505050905090565b5f6103718261077f565b505f828152600460205260409020546001600160a01b03166102ae565b6103998282336107b7565b5050565b6001600160a01b0382166103cb57604051633250574960e11b81525f60048201526024015b60405180910390fd5b5f6103d78383336107c4565b9050836001600160a01b0316816001600160a01b031614610425576040516364283d7b60e01b81526001600160a01b03808616600483015260248201849052821660448201526064016103c2565b50505050565b61044583838360405180602001604052805f8152506104c6565b505050565b5f6102ae8261077f565b5f6001600160a01b03821661047e576040516322718ad960e21b81525f60048201526024016103c2565b506001600160a01b03165f9081526003602052604090205490565b6104a1610653565b6104aa5f6108b6565b565b6060600180546102e69061118e565b610399338383610907565b6104d184848461039d565b61042533858585856109a5565b60606104e98261077f565b505f82815260066020526040812080546105029061118e565b80601f016020809104026020016040519081016040528092919081815260200182805461052e9061118e565b80156105795780601f1061055057610100808354040283529160200191610579565b820191905f5260205f20905b81548152906001019060200180831161055c57829003601f168201915b505050505090505f61059560408051602081019091525f815290565b905080515f036105a6575092915050565b8151156105d85780826040516020016105c09291906111c6565b60405160208183030381529060405292505050919050565b6105e184610acd565b949350505050565b6001600160a01b039182165f90815260056020908152604080832093909416825291909152205460ff1690565b61061e610653565b6001600160a01b03811661064757604051631e4fbdf760e01b81525f60048201526024016103c2565b610650816108b6565b50565b6007546001600160a01b031633146104aa5760405163118cdaa760e01b81523360048201526024016103c2565b6001600160a01b0382166106a957604051633250574960e11b81525f60048201526024016103c2565b5f6106b583835f6107c4565b90506001600160a01b03811615610445576040516339e3563760e11b81525f60048201526024016103c2565b5f8281526006602052604090206106f88282611239565b506040518281527ff8e1a15aba9398e019f0b49df1a4fde98ee17ae345cb5f6b5e2c27f5033e8ce79060200160405180910390a15050565b5f6001600160e01b031982166380ac58cd60e01b148061076057506001600160e01b03198216635b5e139f60e01b145b806102ae57506301ffc9a760e01b6001600160e01b03198316146102ae565b5f818152600260205260408120546001600160a01b0316806102ae57604051637e27328960e01b8152600481018490526024016103c2565b6104458383836001610b3e565b5f828152600260205260408120546001600160a01b03908116908316156107f0576107f0818486610c42565b6001600160a01b0381161561082a5761080b5f855f80610b3e565b6001600160a01b0381165f90815260036020526040902080545f190190555b6001600160a01b03851615610858576001600160a01b0385165f908152600360205260409020805460010190555b5f8481526002602052604080822080546001600160a01b0319166001600160a01b0389811691821790925591518793918516917fddf252ad1be2c89b69c2b068fc378daa952ba7f163c4a11628f55a4df523b3ef91a4949350505050565b600780546001600160a01b038381166001600160a01b0319831681179093556040519116919082907f8be0079c531659141344cd1fd0a4f28419497f9722a3daafe3b4186f6b6457e0905f90a35050565b6001600160a01b03821661093957604051630b61174360e31b81526001600160a01b03831660048201526024016103c2565b6001600160a01b038381165f81815260056020908152604080832094871680845294825291829020805460ff191686151590811790915591519182527f17307eab39ab6107e8899845ad3d59bd9653f200f220920489ca2b5937696c31910160405180910390a3505050565b6001600160a01b0383163b15610ac657604051630a85bd0160e11b81526001600160a01b0384169063150b7a02906109e79088908890879087906004016112f5565b6020604051808303815f875af1925050508015610a21575060408051601f3d908101601f19168201909252610a1e91810190611331565b60015b610a88573d808015610a4e576040519150601f19603f3d011682016040523d82523d5f602084013e610a53565b606091505b5080515f03610a8057604051633250574960e11b81526001600160a01b03851660048201526024016103c2565b805160208201fd5b6001600160e01b03198116630a85bd0160e11b14610ac457604051633250574960e11b81526001600160a01b03851660048201526024016103c2565b505b5050505050565b6060610ad88261077f565b505f610aee60408051602081019091525f815290565b90505f815111610b0c5760405180602001604052805f815250610b37565b80610b1684610ca6565b604051602001610b279291906111c6565b6040516020818303038152906040525b9392505050565b8080610b5257506001600160a01b03821615155b15610c13575f610b618461077f565b90506001600160a01b03831615801590610b8d5750826001600160a01b0316816001600160a01b031614155b8015610ba05750610b9e81846105e9565b155b15610bc95760405163a9fbf51f60e01b81526001600160a01b03841660048201526024016103c2565b8115610c115783856001600160a01b0316826001600160a01b03167f8c5be1e5ebec7d5bd14f71427d1e84f3dd0314c0f7b2291e5b200ac8c7c3b92560405160405180910390a45b505b50505f90815260046020526040902080546001600160a01b0319166001600160a01b0392909216919091179055565b610c4d838383610d36565b610445576001600160a01b038316610c7b57604051637e27328960e01b8152600481018290526024016103c2565b60405163177e802f60e01b81526001600160a01b0383166004820152602481018290526044016103c2565b60605f610cb283610d97565b60010190505f8167ffffffffffffffff811115610cd157610cd1610e89565b6040519080825280601f01601f191660200182016040528015610cfb576020820181803683370190505b5090508181016020015b5f19016f181899199a1a9b1b9c1cb0b131b232b360811b600a86061a8153600a8504945084610d0557509392505050565b5f6001600160a01b038316158015906105e15750826001600160a01b0316846001600160a01b03161480610d6f5750610d6f84846105e9565b806105e15750505f908152600460205260409020546001600160a01b03908116911614919050565b5f8072184f03e93ff9f4daa797ed6e38ed64bf6a1f0160401b8310610dd55772184f03e93ff9f4daa797ed6e38ed64bf6a1f0160401b830492506040015b6d04ee2d6d415b85acef81000000008310610e01576d04ee2d6d415b85acef8100000000830492506020015b662386f26fc100008310610e1f57662386f26fc10000830492506010015b6305f5e1008310610e37576305f5e100830492506008015b6127108310610e4b57612710830492506004015b60648310610e5d576064830492506002015b600a83106102ae5760010192915050565b80356001600160a01b0381168114610e84575f80fd5b919050565b634e487b7160e01b5f52604160045260245ffd5b5f67ffffffffffffffff80841115610eb757610eb7610e89565b604051601f8501601f19908116603f01168101908282118183101715610edf57610edf610e89565b81604052809350858152868686011115610ef7575f80fd5b858560208301375f602087830101525050509392505050565b5f8060408385031215610f21575f80fd5b610f2a83610e6e565b9150602083013567ffffffffffffffff811115610f45575f80fd5b8301601f81018513610f55575f80fd5b610f6485823560208401610e9d565b9150509250929050565b6001600160e01b031981168114610650575f80fd5b5f60208284031215610f93575f80fd5b8135610b3781610f6e565b5f5b83811015610fb8578181015183820152602001610fa0565b50505f910152565b5f8151808452610fd7816020860160208601610f9e565b601f01601f19169290920160200192915050565b602081525f610b376020830184610fc0565b5f6020828403121561100d575f80fd5b5035919050565b5f8060408385031215611025575f80fd5b61102e83610e6e565b946020939093013593505050565b5f805f6060848603121561104e575f80fd5b61105784610e6e565b925061106560208501610e6e565b9150604084013590509250925092565b5f60208284031215611085575f80fd5b610b3782610e6e565b5f806040838503121561109f575f80fd5b6110a883610e6e565b9150602083013580151581146110bc575f80fd5b809150509250929050565b5f805f80608085870312156110da575f80fd5b6110e385610e6e565b93506110f160208601610e6e565b925060408501359150606085013567ffffffffffffffff811115611113575f80fd5b8501601f81018713611123575f80fd5b61113287823560208401610e9d565b91505092959194509250565b5f806040838503121561114f575f80fd5b61115883610e6e565b915061116660208401610e6e565b90509250929050565b808201808211156102ae57634e487b7160e01b5f52601160045260245ffd5b600181811c908216806111a257607f821691505b6020821081036111c057634e487b7160e01b5f52602260045260245ffd5b50919050565b5f83516111d7818460208801610f9e565b8351908301906111eb818360208801610f9e565b01949350505050565b601f821115610445575f81815260208120601f850160051c8101602086101561121a5750805b601f850160051c820191505b81811015610ac457828155600101611226565b815167ffffffffffffffff81111561125357611253610e89565b61126781611261845461118e565b846111f4565b602080601f83116001811461129a575f84156112835750858301515b5f19600386901b1c1916600185901b178555610ac4565b5f85815260208120601f198616915b828110156112c8578886015182559484019460019091019084016112a9565b50858210156112e557878501515f19600388901b60f8161c191681555b5050505050600190811b01905550565b6001600160a01b03858116825284166020820152604081018390526080606082018190525f9061132790830184610fc0565b9695505050505050565b5f60208284031215611341575f80fd5b8151610b3781610f6e56fea26469706673582212206dd684963c66181d33708442f0c483f6785223bac3518b3bce8f962c9bd3c39464736f6c63430008150033",
    "immutableReferences": {},
    "source": "// SPDX-License-Identifier: MIT\r\npragma solidity ^0.8.20;\r\n\r\nimport \"@openzeppelin/contracts/token/ERC721/extensions/ERC721URIStorage.sol\";\r\nimport \"@openzeppelin/contracts/access/Ownable.sol\";\r\n\r\n/**\r\n * @title HealthCredentialNFT\r\n * @dev An ERC721 token for minting health credentials as NFTs.\r\n * Each token URI points to a JSON metadata file on IPFS.\r\n * The contract owner has the exclusive right to mint new tokens.\r\n */\r\ncontract HealthCredentialNFT is ERC721URIStorage, Ownable {\r\n    uint256 private _tokenIdCounter;\r\n\r\n    /**\r\n     * @dev Sets the contract name, symbol, and initial owner.\r\n     */\r\n    constructor(address initialOwner)\r\n        ERC721(\"Health Credential NFT\", \"HCNFT\")\r\n        Ownable(initialOwner)\r\n    {}\r\n\r\n    /**\r\n     * @dev Mints a new token and assigns it to `to`.\r\n     * The token URI is set to the IPFS metadata URL.\r\n     * Can only be called by the contract owner.\r\n     * @param to The address to receive the new NFT.\r\n     * @param tokenURI The URI of the token's metadata JSON file on IPFS.\r\n     * @return The ID of the newly minted token.\r\n     */\r\n    function mintTo(address to, string memory tokenURI) public onlyOwner returns (uint256) {\r\n        uint256 tokenId = _tokenIdCounter;\r\n        _mint(to, tokenId);\r\n        _setTokenURI(tokenId, tokenURI);\r\n        _tokenIdCounter += 1;\r\n        return tokenId;\r\n    }\r\n\r\n    /**\r\n     * @dev Base URI for computing `tokenURI`. If set, the resulting URI for each\r\n     * token will be the concatenation of the `baseURI` and the `tokenId`.\r\n     * Overridden to be empty as we use the full `tokenURI` in `_setTokenURI`.\r\n     */\r\n    function _baseURI() internal pure override returns (string memory) {\r\n        return \"\";\r\n    }\r\n}\r\n",
    "sourcePath": "D:\\Projects\\health-credential-wallet-dapp\\contracts\\HealthCredentialNFT.sol",
    "compiler": {
        "name": "solc",
        "version": "0.8.21+commit.d9974bed.Emscripten.clang"
    },
    "schemaVersion": "3.4.16",
    "updatedAt": "2025-10-02T12:06:05.281Z",
    "networkType": "ethereum",
    "devdoc": {
        "details": "An ERC721 token for minting health credentials as NFTs. Each token URI points to a JSON metadata file on IPFS. The contract owner has the exclusive right to mint new tokens.",
        "errors": {
            "ERC721IncorrectOwner(address,uint256,address)": [
                {
                    "details": "Indicates an error related to the ownership over a particular token. Used in transfers.",
                    "params": {
                        "owner": "Address of the current owner of a token.",
                        "sender": "Address whose tokens are being transferred.",
                        "tokenId": "Identifier number of a token."
                    }
                }
            ],
            "ERC721InsufficientApproval(address,uint256)": [
                {
                    "details": "Indicates a failure with the `operator`s approval. Used in transfers.",
                    "params": {
                        "operator": "Address that may be allowed to operate on tokens without being their owner.",
                        "tokenId": "Identifier number of a token."
                    }
                }
            ],
            "ERC721InvalidApprover(address)": [
                {
                    "details": "Indicates a failure with the `approver` of a token to be approved. Used in approvals.",
                    "params": {
                        "approver": "Address initiating an approval operation."
                    }
                }
            ],
            "ERC721InvalidOperator(address)": [
                {
                    "details": "Indicates a failure with the `operator` to be approved. Used in approvals.",
                    "params": {
                        "operator": "Address that may be allowed to operate on tokens without being their owner."
                    }
                }
            ],
            "ERC721InvalidOwner(address)": [
                {
                    "details": "Indicates that an address can't be an owner. For example, `address(0)` is a forbidden owner in ERC-20. Used in balance queries.",
                    "params": {
                        "owner": "Address of the current owner of a token."
                    }
                }
            ],
            "ERC721InvalidReceiver(address)": [
                {
                    "details": "Indicates a failure with the token `receiver`. Used in transfers.",
                    "params": {
                        "receiver": "Address to which tokens are being transferred."
                    }
                }
            ],
            "ERC721InvalidSender(address)": [
                {
                    "details": "Indicates a failure with the token `sender`. Used in transfers.",
                    "params": {
                        "sender": "Address whose tokens are being transferred."
                    }
                }
            ],
            "ERC721NonexistentToken(uint256)": [
                {
                    "details": "Indicates a `tokenId` whose `owner` is the zero address.",
                    "params": {
                        "tokenId": "Identifier number of a token."
                    }
                }
            ],
            "OwnableInvalidOwner(address)": [
                {
                    "details": "The owner is not a valid owner account. (eg. `address(0)`)"
                }
            ],
            "OwnableUnauthorizedAccount(address)": [
                {
                    "details": "The caller account is not authorized to perform an operation."
                }
            ]
        },
        "events": {
            "Approval(address,address,uint256)": {
                "details": "Emitted when `owner` enables `approved` to manage the `tokenId` token."
            },
            "ApprovalForAll(address,address,bool)": {
                "details": "Emitted when `owner` enables or disables (`approved`) `operator` to manage all of its assets."
            },
            "BatchMetadataUpdate(uint256,uint256)": {
                "details": "This event emits when the metadata of a range of tokens is changed. So that the third-party platforms such as NFT market could timely update the images and related attributes of the NFTs."
            },
            "MetadataUpdate(uint256)": {
                "details": "This event emits when the metadata of a token is changed. So that the third-party platforms such as NFT market could timely update the images and related attributes of the NFT."
            },
            "Transfer(address,address,uint256)": {
                "details": "Emitted when `tokenId` token is transferred from `from` to `to`."
            }
        },
        "kind": "dev",
        "methods": {
            "approve(address,uint256)": {
                "details": "Gives permission to `to` to transfer `tokenId` token to another account. The approval is cleared when the token is transferred. Only a single account can be approved at a time, so approving the zero address clears previous approvals. Requirements: - The caller must own the token or be an approved operator. - `tokenId` must exist. Emits an {Approval} event."
            },
            "balanceOf(address)": {
                "details": "Returns the number of tokens in ``owner``'s account."
            },
            "constructor": {
                "details": "Sets the contract name, symbol, and initial owner."
            },
            "getApproved(uint256)": {
                "details": "Returns the account approved for `tokenId` token. Requirements: - `tokenId` must exist."
            },
            "isApprovedForAll(address,address)": {
                "details": "Returns if the `operator` is allowed to manage all of the assets of `owner`. See {setApprovalForAll}"
            },
            "mintTo(address,string)": {
                "details": "Mints a new token and assigns it to `to`. The token URI is set to the IPFS metadata URL. Can only be called by the contract owner.",
                "params": {
                    "to": "The address to receive the new NFT.",
                    "tokenURI": "The URI of the token's metadata JSON file on IPFS."
                },
                "returns": {
                    "_0": "The ID of the newly minted token."
                }
            },
            "name()": {
                "details": "Returns the token collection name."
            },
            "owner()": {
                "details": "Returns the address of the current owner."
            },
            "ownerOf(uint256)": {
                "details": "Returns the owner of the `tokenId` token. Requirements: - `tokenId` must exist."
            },
            "renounceOwnership()": {
                "details": "Leaves the contract without owner. It will not be possible to call `onlyOwner` functions. Can only be called by the current owner. NOTE: Renouncing ownership will leave the contract without an owner, thereby disabling any functionality that is only available to the owner."
            },
            "safeTransferFrom(address,address,uint256)": {
                "details": "Safely transfers `tokenId` token from `from` to `to`, checking first that contract recipients are aware of the ERC-721 protocol to prevent tokens from being forever locked. Requirements: - `from` cannot be the zero address. - `to` cannot be the zero address. - `tokenId` token must exist and be owned by `from`. - If the caller is not `from`, it must have been allowed to move this token by either {approve} or   {setApprovalForAll}. - If `to` refers to a smart contract, it must implement {IERC721Receiver-onERC721Received}, which is called upon   a safe transfer. Emits a {Transfer} event."
            },
            "safeTransferFrom(address,address,uint256,bytes)": {
                "details": "Safely transfers `tokenId` token from `from` to `to`. Requirements: - `from` cannot be the zero address. - `to` cannot be the zero address. - `tokenId` token must exist and be owned by `from`. - If the caller is not `from`, it must be approved to move this token by either {approve} or {setApprovalForAll}. - If `to` refers to a smart contract, it must implement {IERC721Receiver-onERC721Received}, which is called upon   a safe transfer. Emits a {Transfer} event."
            },
            "setApprovalForAll(address,bool)": {
                "details": "Approve or remove `operator` as an operator for the caller. Operators can call {transferFrom} or {safeTransferFrom} for any token owned by the caller. Requirements: - The `operator` cannot be the address zero. Emits an {ApprovalForAll} event."
            },
            "supportsInterface(bytes4)": {
                "details": "Returns true if this contract implements the interface defined by `interfaceId`. See the corresponding https://eips.ethereum.org/EIPS/eip-165#how-interfaces-are-identified[ERC section] to learn more about how these ids are created. This function call must use less than 30 000 gas."
            },
            "symbol()": {
                "details": "Returns the token collection symbol."
            },
            "tokenURI(uint256)": {
                "details": "Returns the Uniform Resource Identifier (URI) for `tokenId` token."
            },
            "transferFrom(address,address,uint256)": {
                "details": "Transfers `tokenId` token from `from` to `to`. WARNING: Note that the caller is responsible to confirm that the recipient is capable of receiving ERC-721 or else they may be permanently lost. Usage of {safeTransferFrom} prevents loss, though the caller must understand this adds an external call which potentially creates a reentrancy vulnerability. Requirements: - `from` cannot be the zero address. - `to` cannot be the zero address. - `tokenId` token must be owned by `from`. - If the caller is not `from`, it must be approved to move this token by either {approve} or {setApprovalForAll}. Emits a {Transfer} event."
            },
            "transferOwnership(address)": {
                "details": "Transfers ownership of the contract to a new account (`newOwner`). Can only be called by the current owner."
            }
        },
        "title": "HealthCredentialNFT",
        "version": 1
    },
    "userdoc": {
        "kind": "user",
        "methods": {},
        "version": 1
    }
}