{
    "contractName": "HealthCredentialNFT",
    "abi": [
        {
            "inputs": [
                {
                    "internalType": "address",
                    "name": "initialOwner",
                    "type": "address"
                }
            ],
            "stateMutability": "nonpayable",
            "type": "constructor"
        },
        {
            "inputs": [
                {
                    "internalType": "address",
                    "name": "sender",
                    "type": "address"
                },
                {
                    "internalType": "uint256",
                    "name": "tokenId",
                    "type": "uint256"
                },
                {
                    "internalType": "address",
                    "name": "owner",
                    "type": "address"
                }
            ],
            "name": "ERC721IncorrectOwner",
            "type": "error"
        },
        {
            "inputs": [
                {
                    "internalType": "address",
                    "name": "operator",
                    "type": "address"
                },
                {
                    "internalType": "uint256",
                    "name": "tokenId",
                    "type": "uint256"
                }
            ],
            "name": "ERC721InsufficientApproval",
            "type": "error"
        },
        {
            "inputs": [
                {
                    "internalType": "address",
                    "name": "approver",
                    "type": "address"
                }
            ],
            "name": "ERC721InvalidApprover",
            "type": "error"
        },
        {
            "inputs": [
                {
                    "internalType": "address",
                    "name": "operator",
                    "type": "address"
                }
            ],
            "name": "ERC721InvalidOperator",
            "type": "error"
        },
        {
            "inputs": [
                {
                    "internalType": "address",
                    "name": "owner",
                    "type": "address"
                }
            ],
            "name": "ERC721InvalidOwner",
            "type": "error"
        },
        {
            "inputs": [
                {
                    "internalType": "address",
                    "name": "receiver",
                    "type": "address"
                }
            ],
            "name": "ERC721InvalidReceiver",
            "type": "error"
        },
        {
            "inputs": [
                {
                    "internalType": "address",
                    "name": "sender",
                    "type": "address"
                }
            ],
            "name": "ERC721InvalidSender",
            "type": "error"
        },
        {
            "inputs": [
                {
                    "internalType": "uint256",
                    "name": "tokenId",
                    "type": "uint256"
                }
            ],
            "name": "ERC721NonexistentToken",
            "type": "error"
        },
        {
            "inputs": [
                {
                    "internalType": "address",
                    "name": "owner",
                    "type": "address"
                }
            ],
            "name": "OwnableInvalidOwner",
            "type": "error"
        },
        {
            "inputs": [
                {
                    "internalType": "address",
                    "name": "account",
                    "type": "address"
                }
            ],
            "name": "OwnableUnauthorizedAccount",
            "type": "error"
        },
        {
            "anonymous": false,
            "inputs": [
                {
                    "indexed": true,
                    "internalType": "address",
                    "name": "owner",
                    "type": "address"
                },
                {
                    "indexed": true,
                    "internalType": "address",
                    "name": "approved",
                    "type": "address"
                },
                {
                    "indexed": true,
                    "internalType": "uint256",
                    "name": "tokenId",
                    "type": "uint256"
                }
            ],
            "name": "Approval",
            "type": "event"
        },
        {
            "anonymous": false,
            "inputs": [
                {
                    "indexed": true,
                    "internalType": "address",
                    "name": "owner",
                    "type": "address"
                },
                {
                    "indexed": true,
                    "internalType": "address",
                    "name": "operator",
                    "type": "address"
                },
                {
                    "indexed": false,
                    "internalType": "bool",
                    "name": "approved",
                    "type": "bool"
                }
            ],
            "name": "ApprovalForAll",
            "type": "event"
        },
        {
            "anonymous": false,
            "inputs": [
                {
                    "indexed": false,
                    "internalType": "uint256",
                    "name": "_fromTokenId",
                    "type": "uint256"
                },
                {
                    "indexed": false,
                    "internalType": "uint256",
                    "name": "_toTokenId",
                    "type": "uint256"
                }
            ],
            "name": "BatchMetadataUpdate",
            "type": "event"
        },
        {
            "anonymous": false,
            "inputs": [
                {
                    "indexed": true,
                    "internalType": "uint256",
                    "name": "tokenId",
                    "type": "uint256"
                },
                {
                    "indexed": false,
                    "internalType": "uint256",
                    "name": "expirationTimestamp",
                    "type": "uint256"
                }
            ],
            "name": "CredentialIssued",
            "type": "event"
        },
        {
            "anonymous": false,
            "inputs": [
                {
                    "indexed": true,
                    "internalType": "uint256",
                    "name": "tokenId",
                    "type": "uint256"
                }
            ],
            "name": "CredentialRevoked",
            "type": "event"
        },
        {
            "anonymous": false,
            "inputs": [
                {
                    "indexed": false,
                    "internalType": "uint256",
                    "name": "_tokenId",
                    "type": "uint256"
                }
            ],
            "name": "MetadataUpdate",
            "type": "event"
        },
        {
            "anonymous": false,
            "inputs": [
                {
                    "indexed": true,
                    "internalType": "address",
                    "name": "previousOwner",
                    "type": "address"
                },
                {
                    "indexed": true,
                    "internalType": "address",
                    "name": "newOwner",
                    "type": "address"
                }
            ],
            "name": "OwnershipTransferred",
            "type": "event"
        },
        {
            "anonymous": false,
            "inputs": [
                {
                    "indexed": true,
                    "internalType": "address",
                    "name": "from",
                    "type": "address"
                },
                {
                    "indexed": true,
                    "internalType": "address",
                    "name": "to",
                    "type": "address"
                },
                {
                    "indexed": true,
                    "internalType": "uint256",
                    "name": "tokenId",
                    "type": "uint256"
                }
            ],
            "name": "Transfer",
            "type": "event"
        },
        {
            "inputs": [
                {
                    "internalType": "address",
                    "name": "to",
                    "type": "address"
                },
                {
                    "internalType": "uint256",
                    "name": "tokenId",
                    "type": "uint256"
                }
            ],
            "name": "approve",
            "outputs": [],
            "stateMutability": "nonpayable",
            "type": "function"
        },
        {
            "inputs": [
                {
                    "internalType": "address",
                    "name": "owner",
                    "type": "address"
                }
            ],
            "name": "balanceOf",
            "outputs": [
                {
                    "internalType": "uint256",
                    "name": "",
                    "type": "uint256"
                }
            ],
            "stateMutability": "view",
            "type": "function"
        },
        {
            "inputs": [
                {
                    "internalType": "uint256",
                    "name": "",
                    "type": "uint256"
                }
            ],
            "name": "expirationTimestamps",
            "outputs": [
                {
                    "internalType": "uint256",
                    "name": "",
                    "type": "uint256"
                }
            ],
            "stateMutability": "view",
            "type": "function"
        },
        {
            "inputs": [
                {
                    "internalType": "uint256",
                    "name": "tokenId",
                    "type": "uint256"
                }
            ],
            "name": "getApproved",
            "outputs": [
                {
                    "internalType": "address",
                    "name": "",
                    "type": "address"
                }
            ],
            "stateMutability": "view",
            "type": "function"
        },
        {
            "inputs": [
                {
                    "internalType": "address",
                    "name": "owner",
                    "type": "address"
                },
                {
                    "internalType": "address",
                    "name": "operator",
                    "type": "address"
                }
            ],
            "name": "isApprovedForAll",
            "outputs": [
                {
                    "internalType": "bool",
                    "name": "",
                    "type": "bool"
                }
            ],
            "stateMutability": "view",
            "type": "function"
        },
        {
            "inputs": [],
            "name": "name",
            "outputs": [
                {
                    "internalType": "string",
                    "name": "",
                    "type": "string"
                }
            ],
            "stateMutability": "view",
            "type": "function"
        },
        {
            "inputs": [],
            "name": "owner",
            "outputs": [
                {
                    "internalType": "address",
                    "name": "",
                    "type": "address"
                }
            ],
            "stateMutability": "view",
            "type": "function"
        },
        {
            "inputs": [
                {
                    "internalType": "uint256",
                    "name": "tokenId",
                    "type": "uint256"
                }
            ],
            "name": "ownerOf",
            "outputs": [
                {
                    "internalType": "address",
                    "name": "",
                    "type": "address"
                }
            ],
            "stateMutability": "view",
            "type": "function"
        },
        {
            "inputs": [],
            "name": "renounceOwnership",
            "outputs": [],
            "stateMutability": "nonpayable",
            "type": "function"
        },
        {
            "inputs": [
                {
                    "internalType": "address",
                    "name": "from",
                    "type": "address"
                },
                {
                    "internalType": "address",
                    "name": "to",
                    "type": "address"
                },
                {
                    "internalType": "uint256",
                    "name": "tokenId",
                    "type": "uint256"
                }
            ],
            "name": "safeTransferFrom",
            "outputs": [],
            "stateMutability": "nonpayable",
            "type": "function"
        },
        {
            "inputs": [
                {
                    "internalType": "address",
                    "name": "from",
                    "type": "address"
                },
                {
                    "internalType": "address",
                    "name": "to",
                    "type": "address"
                },
                {
                    "internalType": "uint256",
                    "name": "tokenId",
                    "type": "uint256"
                },
                {
                    "internalType": "bytes",
                    "name": "data",
                    "type": "bytes"
                }
            ],
            "name": "safeTransferFrom",
            "outputs": [],
            "stateMutability": "nonpayable",
            "type": "function"
        },
        {
            "inputs": [
                {
                    "internalType": "address",
                    "name": "operator",
                    "type": "address"
                },
                {
                    "internalType": "bool",
                    "name": "approved",
                    "type": "bool"
                }
            ],
            "name": "setApprovalForAll",
            "outputs": [],
            "stateMutability": "nonpayable",
            "type": "function"
        },
        {
            "inputs": [
                {
                    "internalType": "bytes4",
                    "name": "interfaceId",
                    "type": "bytes4"
                }
            ],
            "name": "supportsInterface",
            "outputs": [
                {
                    "internalType": "bool",
                    "name": "",
                    "type": "bool"
                }
            ],
            "stateMutability": "view",
            "type": "function"
        },
        {
            "inputs": [],
            "name": "symbol",
            "outputs": [
                {
                    "internalType": "string",
                    "name": "",
                    "type": "string"
                }
            ],
            "stateMutability": "view",
            "type": "function"
        },
        {
            "inputs": [
                {
                    "internalType": "uint256",
                    "name": "tokenId",
                    "type": "uint256"
                }
            ],
            "name": "tokenURI",
            "outputs": [
                {
                    "internalType": "string",
                    "name": "",
                    "type": "string"
                }
            ],
            "stateMutability": "view",
            "type": "function"
        },
        {
            "inputs": [
                {
                    "internalType": "address",
                    "name": "from",
                    "type": "address"
                },
                {
                    "internalType": "address",
                    "name": "to",
                    "type": "address"
                },
                {
                    "internalType": "uint256",
                    "name": "tokenId",
                    "type": "uint256"
                }
            ],
            "name": "transferFrom",
            "outputs": [],
            "stateMutability": "nonpayable",
            "type": "function"
        },
        {
            "inputs": [
                {
                    "internalType": "address",
                    "name": "newOwner",
                    "type": "address"
                }
            ],
            "name": "transferOwnership",
            "outputs": [],
            "stateMutability": "nonpayable",
            "type": "function"
        },
        {
            "inputs": [
                {
                    "internalType": "address",
                    "name": "to",
                    "type": "address"
                },
                {
                    "internalType": "string",
                    "name": "tokenURI",
                    "type": "string"
                },
                {
                    "internalType": "uint256",
                    "name": "expirationTimestamp",
                    "type": "uint256"
                }
            ],
            "name": "mintTo",
            "outputs": [
                {
                    "internalType": "uint256",
                    "name": "",
                    "type": "uint256"
                }
            ],
            "stateMutability": "nonpayable",
            "type": "function"
        },
        {
            "inputs": [
                {
                    "internalType": "uint256",
                    "name": "tokenId",
                    "type": "uint256"
                }
            ],
            "name": "revoke",
            "outputs": [],
            "stateMutability": "nonpayable",
            "type": "function"
        },
        {
            "inputs": [
                {
                    "internalType": "uint256",
                    "name": "tokenId",
                    "type": "uint256"
                }
            ],
            "name": "isRevoked",
            "outputs": [
                {
                    "internalType": "bool",
                    "name": "",
                    "type": "bool"
                }
            ],
            "stateMutability": "view",
            "type": "function"
        },
        {
            "inputs": [
                {
                    "internalType": "uint256",
                    "name": "tokenId",
                    "type": "uint256"
                }
            ],
            "name": "isExpired",
            "outputs": [
                {
                    "internalType": "bool",
                    "name": "",
                    "type": "bool"
                }
            ],
            "stateMutability": "view",
            "type": "function"
        }
    ],
    "bytecode": "0x608060405234801562000010575f80fd5b50604051620017c5380380620017c583398101604081905262000033916200013c565b806040518060400160405280601581526020017f4865616c74682043726564656e7469616c204e46540000000000000000000000815250604051806040016040528060058152602001641210d3919560da1b815250815f90816200009891906200020b565b506001620000a782826200020b565b5050506001600160a01b038116620000d857604051631e4fbdf760e01b81525f600482015260240160405180910390fd5b620000e381620000eb565b5050620002d3565b600780546001600160a01b038381166001600160a01b0319831681179093556040519116919082907f8be0079c531659141344cd1fd0a4f28419497f9722a3daafe3b4186f6b6457e0905f90a35050565b5f602082840312156200014d575f80fd5b81516001600160a01b038116811462000164575f80fd5b9392505050565b634e487b7160e01b5f52604160045260245ffd5b600181811c908216806200019457607f821691505b602082108103620001b357634e487b7160e01b5f52602260045260245ffd5b50919050565b601f82111562000206575f81815260208120601f850160051c81016020861015620001e15750805b601f850160051c820191505b818110156200020257828155600101620001ed565b5050505b505050565b81516001600160401b038111156200022757620002276200016b565b6200023f816200023884546200017f565b84620001b9565b602080601f83116001811462000275575f84156200025d5750858301515b5f19600386901b1c1916600185901b17855562000202565b5f85815260208120601f198616915b82811015620002a55788860151825594840194600190910190840162000284565b5085821015620002c357878501515f19600388901b60f8161c191681555b5050505050600190811b01905550565b6114e480620002e15f395ff3fe608060405234801561000f575f80fd5b5060043610610132575f3560e01c806370a08231116100b4578063b88d4fde11610079578063b88d4fde14610289578063c13b1b131461029c578063c87b56dd146102bb578063d9548e53146102ce578063e985e9c5146102e1578063f2fde38b146102f4575f80fd5b806370a0823114610242578063715018a6146102555780638da5cb5b1461025d57806395d89b411461026e578063a22cb46514610276575f80fd5b806323b872dd116100fa57806323b872dd146101c657806324e263a9146101d957806342842e0e146101fa5780635ccc561e1461020d5780636352211e1461022f575f80fd5b806301ffc9a71461013657806306fdde031461015e578063081812fc14610173578063095ea7b31461019e57806320c5429b146101b3575b5f80fd5b610149610144366004610fdd565b610307565b60405190151581526020015b60405180910390f35b610166610331565b6040516101559190611045565b610186610181366004611057565b6103c0565b6040516001600160a01b039091168152602001610155565b6101b16101ac366004611089565b6103e7565b005b6101b16101c1366004611057565b6103f6565b6101b16101d43660046110b1565b61044a565b6101ec6101e7366004611171565b6104d8565b604051908152602001610155565b6101b16102083660046110b1565b610563565b61014961021b366004611057565b5f9081526009602052604090205460ff1690565b61018661023d366004611057565b610582565b6101ec6102503660046111d7565b61058c565b6101b16105d1565b6007546001600160a01b0316610186565b6101666105e4565b6101b16102843660046111f0565b6105f3565b6101b1610297366004611229565b6105fe565b6101ec6102aa366004611057565b600a6020525f908152604090205481565b6101666102c9366004611057565b610616565b6101496102dc366004611057565b610721565b6101496102ef3660046112a0565b610744565b6101b16103023660046111d7565b610771565b5f6001600160e01b03198216632483248360e11b148061032b575061032b826107ae565b92915050565b60605f805461033f906112d1565b80601f016020809104026020016040519081016040528092919081815260200182805461036b906112d1565b80156103b65780601f1061038d576101008083540402835291602001916103b6565b820191905f5260205f20905b81548152906001019060200180831161039957829003601f168201915b5050505050905090565b5f6103ca826107fd565b505f828152600460205260409020546001600160a01b031661032b565b6103f2828233610835565b5050565b6103fe610842565b61040781610582565b505f81815260096020526040808220805460ff191660011790555182917f0d47d5695004d2a4180ebb40037756439184993a0d1c6d4a8ff3a6aa9325607491a250565b6001600160a01b03821661047857604051633250574960e11b81525f60048201526024015b60405180910390fd5b5f61048483833361086f565b9050836001600160a01b0316816001600160a01b0316146104d2576040516364283d7b60e01b81526001600160a01b038086166004830152602482018490528216604482015260640161046f565b50505050565b5f6104e1610842565b6008546104ee8582610961565b6104f881856109c2565b821561050f575f818152600a602052604090208390555b600160085f8282546105219190611309565b909155505060405183815281907f9962ddc3092915e9a41973e9d3481b20f72762ee430c81314b7b002a1042edfb9060200160405180910390a2949350505050565b61057d83838360405180602001604052805f8152506105fe565b505050565b5f61032b826107fd565b5f6001600160a01b0382166105b6576040516322718ad960e21b81525f600482015260240161046f565b506001600160a01b03165f9081526003602052604090205490565b6105d9610842565b6105e25f610a11565b565b60606001805461033f906112d1565b6103f2338383610a62565b61060984848461044a565b6104d23385858585610b00565b6060610621826107fd565b505f828152600660205260408120805461063a906112d1565b80601f0160208091040260200160405190810160405280929190818152602001828054610666906112d1565b80156106b15780601f10610688576101008083540402835291602001916106b1565b820191905f5260205f20905b81548152906001019060200180831161069457829003601f168201915b505050505090505f6106cd60408051602081019091525f815290565b905080515f036106de575092915050565b8151156107105780826040516020016106f8929190611328565b60405160208183030381529060405292505050919050565b61071984610c28565b949350505050565b5f818152600a6020526040812054801580159061073d57504281105b9392505050565b6001600160a01b039182165f90815260056020908152604080832093909416825291909152205460ff1690565b610779610842565b6001600160a01b0381166107a257604051631e4fbdf760e01b81525f600482015260240161046f565b6107ab81610a11565b50565b5f6001600160e01b031982166380ac58cd60e01b14806107de57506001600160e01b03198216635b5e139f60e01b145b8061032b57506301ffc9a760e01b6001600160e01b031983161461032b565b5f818152600260205260408120546001600160a01b03168061032b57604051637e27328960e01b81526004810184905260240161046f565b61057d8383836001610c98565b6007546001600160a01b031633146105e25760405163118cdaa760e01b815233600482015260240161046f565b5f828152600260205260408120546001600160a01b039081169083161561089b5761089b818486610d9c565b6001600160a01b038116156108d5576108b65f855f80610c98565b6001600160a01b0381165f90815260036020526040902080545f190190555b6001600160a01b03851615610903576001600160a01b0385165f908152600360205260409020805460010190555b5f8481526002602052604080822080546001600160a01b0319166001600160a01b0389811691821790925591518793918516917fddf252ad1be2c89b69c2b068fc378daa952ba7f163c4a11628f55a4df523b3ef91a4949350505050565b6001600160a01b03821661098a57604051633250574960e11b81525f600482015260240161046f565b5f61099683835f61086f565b90506001600160a01b0381161561057d576040516339e3563760e11b81525f600482015260240161046f565b5f8281526006602052604090206109d9828261139b565b506040518281527ff8e1a15aba9398e019f0b49df1a4fde98ee17ae345cb5f6b5e2c27f5033e8ce79060200160405180910390a15050565b600780546001600160a01b038381166001600160a01b0319831681179093556040519116919082907f8be0079c531659141344cd1fd0a4f28419497f9722a3daafe3b4186f6b6457e0905f90a35050565b6001600160a01b038216610a9457604051630b61174360e31b81526001600160a01b038316600482015260240161046f565b6001600160a01b038381165f81815260056020908152604080832094871680845294825291829020805460ff191686151590811790915591519182527f17307eab39ab6107e8899845ad3d59bd9653f200f220920489ca2b5937696c31910160405180910390a3505050565b6001600160a01b0383163b15610c2157604051630a85bd0160e11b81526001600160a01b0384169063150b7a0290610b42908890889087908790600401611457565b6020604051808303815f875af1925050508015610b7c575060408051601f3d908101601f19168201909252610b7991810190611493565b60015b610be3573d808015610ba9576040519150601f19603f3d011682016040523d82523d5f602084013e610bae565b606091505b5080515f03610bdb57604051633250574960e11b81526001600160a01b038516600482015260240161046f565b805160208201fd5b6001600160e01b03198116630a85bd0160e11b14610c1f57604051633250574960e11b81526001600160a01b038516600482015260240161046f565b505b5050505050565b6060610c33826107fd565b505f610c4960408051602081019091525f815290565b90505f815111610c675760405180602001604052805f81525061073d565b80610c7184610e00565b604051602001610c82929190611328565b6040516020818303038152906040529392505050565b8080610cac57506001600160a01b03821615155b15610d6d575f610cbb846107fd565b90506001600160a01b03831615801590610ce75750826001600160a01b0316816001600160a01b031614155b8015610cfa5750610cf88184610744565b155b15610d235760405163a9fbf51f60e01b81526001600160a01b038416600482015260240161046f565b8115610d6b5783856001600160a01b0316826001600160a01b03167f8c5be1e5ebec7d5bd14f71427d1e84f3dd0314c0f7b2291e5b200ac8c7c3b92560405160405180910390a45b505b50505f90815260046020526040902080546001600160a01b0319166001600160a01b0392909216919091179055565b610da7838383610e90565b61057d576001600160a01b038316610dd557604051637e27328960e01b81526004810182905260240161046f565b60405163177e802f60e01b81526001600160a01b03831660048201526024810182905260440161046f565b60605f610e0c83610ef1565b60010190505f8167ffffffffffffffff811115610e2b57610e2b6110ea565b6040519080825280601f01601f191660200182016040528015610e55576020820181803683370190505b5090508181016020015b5f19016f181899199a1a9b1b9c1cb0b131b232b360811b600a86061a8153600a8504945084610e5f57509392505050565b5f6001600160a01b038316158015906107195750826001600160a01b0316846001600160a01b03161480610ec95750610ec98484610744565b806107195750505f908152600460205260409020546001600160a01b03908116911614919050565b5f8072184f03e93ff9f4daa797ed6e38ed64bf6a1f0160401b8310610f2f5772184f03e93ff9f4daa797ed6e38ed64bf6a1f0160401b830492506040015b6d04ee2d6d415b85acef81000000008310610f5b576d04ee2d6d415b85acef8100000000830492506020015b662386f26fc100008310610f7957662386f26fc10000830492506010015b6305f5e1008310610f91576305f5e100830492506008015b6127108310610fa557612710830492506004015b60648310610fb7576064830492506002015b600a831061032b5760010192915050565b6001600160e01b0319811681146107ab575f80fd5b5f60208284031215610fed575f80fd5b813561073d81610fc8565b5f5b83811015611012578181015183820152602001610ffa565b50505f910152565b5f8151808452611031816020860160208601610ff8565b601f01601f19169290920160200192915050565b602081525f61073d602083018461101a565b5f60208284031215611067575f80fd5b5035919050565b80356001600160a01b0381168114611084575f80fd5b919050565b5f806040838503121561109a575f80fd5b6110a38361106e565b946020939093013593505050565b5f805f606084860312156110c3575f80fd5b6110cc8461106e565b92506110da6020850161106e565b9150604084013590509250925092565b634e487b7160e01b5f52604160045260245ffd5b5f67ffffffffffffffff80841115611118576111186110ea565b604051601f8501601f19908116603f01168101908282118183101715611140576111406110ea565b81604052809350858152868686011115611158575f80fd5b858560208301375f602087830101525050509392505050565b5f805f60608486031215611183575f80fd5b61118c8461106e565b9250602084013567ffffffffffffffff8111156111a7575f80fd5b8401601f810186136111b7575f80fd5b6111c6868235602084016110fe565b925050604084013590509250925092565b5f602082840312156111e7575f80fd5b61073d8261106e565b5f8060408385031215611201575f80fd5b61120a8361106e565b91506020830135801515811461121e575f80fd5b809150509250929050565b5f805f806080858703121561123c575f80fd5b6112458561106e565b93506112536020860161106e565b925060408501359150606085013567ffffffffffffffff811115611275575f80fd5b8501601f81018713611285575f80fd5b611294878235602084016110fe565b91505092959194509250565b5f80604083850312156112b1575f80fd5b6112ba8361106e565b91506112c86020840161106e565b90509250929050565b600181811c908216806112e557607f821691505b60208210810361130357634e487b7160e01b5f52602260045260245ffd5b50919050565b8082018082111561032b57634e487b7160e01b5f52601160045260245ffd5b5f8351611339818460208801610ff8565b83519083019061134d818360208801610ff8565b01949350505050565b601f82111561057d575f81815260208120601f850160051c8101602086101561137c5750805b601f850160051c820191505b81811015610c1f57828155600101611388565b815167ffffffffffffffff8111156113b5576113b56110ea565b6113c9816113c384546112d1565b84611356565b602080601f8311600181146113fc575f84156113e55750858301515b5f19600386901b1c1916600185901b178555610c1f565b5f85815260208120601f198616915b8281101561142a5788860151825594840194600190910190840161140b565b508582101561144757878501515f19600388901b60f8161c191681555b5050505050600190811b01905550565b6001600160a01b03858116825284166020820152604081018390526080606082018190525f906114899083018461101a565b9695505050505050565b5f602082840312156114a3575f80fd5b815161073d81610fc856fea26469706673582212208a6f838389a02eccceb37ccbd065b85930c6110b4c21f8ca31c13c50c7c5f79164736f6c63430008150033",
    "immutableReferences": {},
    "source": "// SPDX-License-Identifier: MIT\r\npragma solidity ^0.8.20;\r\n\r\nimport \"@openzeppelin/contracts/token/ERC721/extensions/ERC721URIStorage.sol\";\r\nimport \"@openzeppelin/contracts/access/Ownable.sol\";\r\n\r\ncontract HealthCredentialNFT is ERC721URIStorage, Ownable {\r\n    uint256 private _tokenIdCounter;\r\n\r\n    // --- MAPPING FOR REVOCATION ---\r\n    mapping(uint256 => bool) private _revokedTokens;\r\n\r\n    // --- MAPPING FOR EXPIRATION ---\r\n    mapping(uint256 => uint256) public expirationTimestamps;\r\n\r\n    // --- EVENTS ---\r\n    event CredentialRevoked(uint256 indexed tokenId);\r\n    event CredentialIssued(uint256 indexed tokenId, uint256 expirationTimestamp);\r\n\r\n\r\n    constructor(address initialOwner)\r\n        ERC721(\"Health Credential NFT\", \"HCNFT\")\r\n        Ownable(initialOwner)\r\n    {}\r\n\r\n    /**\r\n     * @dev UPDATED: Now accepts an expiration timestamp.\r\n     */\r\n    function mintTo(address to, string memory tokenURI, uint256 expirationTimestamp) public onlyOwner returns (uint256) {\r\n        uint256 tokenId = _tokenIdCounter;\r\n        _mint(to, tokenId);\r\n        _setTokenURI(tokenId, tokenURI);\r\n        \r\n        if (expirationTimestamp > 0) {\r\n            expirationTimestamps[tokenId] = expirationTimestamp;\r\n        }\r\n\r\n        _tokenIdCounter += 1;\r\n        emit CredentialIssued(tokenId, expirationTimestamp);\r\n        return tokenId;\r\n    }\r\n\r\n    /**\r\n     * --- FUNCTION TO REVOKE A CREDENTIAL ---\r\n     */\r\n    function revoke(uint256 tokenId) public onlyOwner {\r\n        // --- CORRECTED: Use the public ownerOf function to ensure the token exists. ---\r\n        // This will automatically revert with an \"ERC721NonexistentToken\" error if the tokenId\r\n        // has not been minted, which is the desired behavior.\r\n        ownerOf(tokenId);\r\n        \r\n        _revokedTokens[tokenId] = true;\r\n        emit CredentialRevoked(tokenId);\r\n    }\r\n\r\n    /**\r\n     * --- PUBLIC VIEW FUNCTION TO CHECK REVOCATION STATUS ---\r\n     */\r\n    function isRevoked(uint256 tokenId) public view returns (bool) {\r\n        return _revokedTokens[tokenId];\r\n    }\r\n\r\n    /**\r\n     * --- PUBLIC VIEW FUNCTION TO CHECK EXPIRATION STATUS ---\r\n     */\r\n    function isExpired(uint256 tokenId) public view returns (bool) {\r\n        uint256 expiration = expirationTimestamps[tokenId];\r\n        return expiration != 0 && expiration < block.timestamp;\r\n    }\r\n    \r\n    function _baseURI() internal pure override returns (string memory) {\r\n        return \"\";\r\n    }\r\n}",
    "sourcePath": "D:\\Projects\\health-credential-wallet-dapp\\contracts\\HealthCredentialNFT.sol",
    "compiler": {
        "name": "solc",
        "version": "0.8.21+commit.d9974bed.Emscripten.clang"
    },
    "schemaVersion": "3.4.16",
    "updatedAt": "2025-10-01T07:46:28.523Z",
    "devdoc": {
        "errors": {
            "ERC721IncorrectOwner(address,uint256,address)": [
                {
                    "details": "Indicates an error related to the ownership over a particular token. Used in transfers.",
                    "params": {
                        "owner": "Address of the current owner of a token.",
                        "sender": "Address whose tokens are being transferred.",
                        "tokenId": "Identifier number of a token."
                    }
                }
            ],
            "ERC721InsufficientApproval(address,uint256)": [
                {
                    "details": "Indicates a failure with the `operator`s approval. Used in transfers.",
                    "params": {
                        "operator": "Address that may be allowed to operate on tokens without being their owner.",
                        "tokenId": "Identifier number of a token."
                    }
                }
            ],
            "ERC721InvalidApprover(address)": [
                {
                    "details": "Indicates a failure with the `approver` of a token to be approved. Used in approvals.",
                    "params": {
                        "approver": "Address initiating an approval operation."
                    }
                }
            ],
            "ERC721InvalidOperator(address)": [
                {
                    "details": "Indicates a failure with the `operator` to be approved. Used in approvals.",
                    "params": {
                        "operator": "Address that may be allowed to operate on tokens without being their owner."
                    }
                }
            ],
            "ERC721InvalidOwner(address)": [
                {
                    "details": "Indicates that an address can't be an owner. For example, `address(0)` is a forbidden owner in ERC-20. Used in balance queries.",
                    "params": {
                        "owner": "Address of the current owner of a token."
                    }
                }
            ],
            "ERC721InvalidReceiver(address)": [
                {
                    "details": "Indicates a failure with the token `receiver`. Used in transfers.",
                    "params": {
                        "receiver": "Address to which tokens are being transferred."
                    }
                }
            ],
            "ERC721InvalidSender(address)": [
                {
                    "details": "Indicates a failure with the token `sender`. Used in transfers.",
                    "params": {
                        "sender": "Address whose tokens are being transferred."
                    }
                }
            ],
            "ERC721NonexistentToken(uint256)": [
                {
                    "details": "Indicates a `tokenId` whose `owner` is the zero address.",
                    "params": {
                        "tokenId": "Identifier number of a token."
                    }
                }
            ],
            "OwnableInvalidOwner(address)": [
                {
                    "details": "The owner is not a valid owner account. (eg. `address(0)`)"
                }
            ],
            "OwnableUnauthorizedAccount(address)": [
                {
                    "details": "The caller account is not authorized to perform an operation."
                }
            ]
        },
        "events": {
            "Approval(address,address,uint256)": {
                "details": "Emitted when `owner` enables `approved` to manage the `tokenId` token."
            },
            "ApprovalForAll(address,address,bool)": {
                "details": "Emitted when `owner` enables or disables (`approved`) `operator` to manage all of its assets."
            },
            "BatchMetadataUpdate(uint256,uint256)": {
                "details": "This event emits when the metadata of a range of tokens is changed. So that the third-party platforms such as NFT market could timely update the images and related attributes of the NFTs."
            },
            "MetadataUpdate(uint256)": {
                "details": "This event emits when the metadata of a token is changed. So that the third-party platforms such as NFT market could timely update the images and related attributes of the NFT."
            },
            "Transfer(address,address,uint256)": {
                "details": "Emitted when `tokenId` token is transferred from `from` to `to`."
            }
        },
        "kind": "dev",
        "methods": {
            "approve(address,uint256)": {
                "details": "Gives permission to `to` to transfer `tokenId` token to another account. The approval is cleared when the token is transferred. Only a single account can be approved at a time, so approving the zero address clears previous approvals. Requirements: - The caller must own the token or be an approved operator. - `tokenId` must exist. Emits an {Approval} event."
            },
            "balanceOf(address)": {
                "details": "Returns the number of tokens in ``owner``'s account."
            },
            "getApproved(uint256)": {
                "details": "Returns the account approved for `tokenId` token. Requirements: - `tokenId` must exist."
            },
            "isApprovedForAll(address,address)": {
                "details": "Returns if the `operator` is allowed to manage all of the assets of `owner`. See {setApprovalForAll}"
            },
            "mintTo(address,string,uint256)": {
                "details": "UPDATED: Now accepts an expiration timestamp."
            },
            "name()": {
                "details": "Returns the token collection name."
            },
            "owner()": {
                "details": "Returns the address of the current owner."
            },
            "ownerOf(uint256)": {
                "details": "Returns the owner of the `tokenId` token. Requirements: - `tokenId` must exist."
            },
            "renounceOwnership()": {
                "details": "Leaves the contract without owner. It will not be possible to call `onlyOwner` functions. Can only be called by the current owner. NOTE: Renouncing ownership will leave the contract without an owner, thereby disabling any functionality that is only available to the owner."
            },
            "safeTransferFrom(address,address,uint256)": {
                "details": "Safely transfers `tokenId` token from `from` to `to`, checking first that contract recipients are aware of the ERC-721 protocol to prevent tokens from being forever locked. Requirements: - `from` cannot be the zero address. - `to` cannot be the zero address. - `tokenId` token must exist and be owned by `from`. - If the caller is not `from`, it must have been allowed to move this token by either {approve} or   {setApprovalForAll}. - If `to` refers to a smart contract, it must implement {IERC721Receiver-onERC721Received}, which is called upon   a safe transfer. Emits a {Transfer} event."
            },
            "safeTransferFrom(address,address,uint256,bytes)": {
                "details": "Safely transfers `tokenId` token from `from` to `to`. Requirements: - `from` cannot be the zero address. - `to` cannot be the zero address. - `tokenId` token must exist and be owned by `from`. - If the caller is not `from`, it must be approved to move this token by either {approve} or {setApprovalForAll}. - If `to` refers to a smart contract, it must implement {IERC721Receiver-onERC721Received}, which is called upon   a safe transfer. Emits a {Transfer} event."
            },
            "setApprovalForAll(address,bool)": {
                "details": "Approve or remove `operator` as an operator for the caller. Operators can call {transferFrom} or {safeTransferFrom} for any token owned by the caller. Requirements: - The `operator` cannot be the address zero. Emits an {ApprovalForAll} event."
            },
            "supportsInterface(bytes4)": {
                "details": "Returns true if this contract implements the interface defined by `interfaceId`. See the corresponding https://eips.ethereum.org/EIPS/eip-165#how-interfaces-are-identified[ERC section] to learn more about how these ids are created. This function call must use less than 30 000 gas."
            },
            "symbol()": {
                "details": "Returns the token collection symbol."
            },
            "tokenURI(uint256)": {
                "details": "Returns the Uniform Resource Identifier (URI) for `tokenId` token."
            },
            "transferFrom(address,address,uint256)": {
                "details": "Transfers `tokenId` token from `from` to `to`. WARNING: Note that the caller is responsible to confirm that the recipient is capable of receiving ERC-721 or else they may be permanently lost. Usage of {safeTransferFrom} prevents loss, though the caller must understand this adds an external call which potentially creates a reentrancy vulnerability. Requirements: - `from` cannot be the zero address. - `to` cannot be the zero address. - `tokenId` token must be owned by `from`. - If the caller is not `from`, it must be approved to move this token by either {approve} or {setApprovalForAll}. Emits a {Transfer} event."
            },
            "transferOwnership(address)": {
                "details": "Transfers ownership of the contract to a new account (`newOwner`). Can only be called by the current owner."
            }
        },
        "version": 1
    },
    "userdoc": {
        "kind": "user",
        "methods": {
            "isExpired(uint256)": {
                "notice": "--- PUBLIC VIEW FUNCTION TO CHECK EXPIRATION STATUS ---"
            },
            "isRevoked(uint256)": {
                "notice": "--- PUBLIC VIEW FUNCTION TO CHECK REVOCATION STATUS ---"
            },
            "revoke(uint256)": {
                "notice": "--- FUNCTION TO REVOKE A CREDENTIAL ---"
            }
        },
        "version": 1
    }
}