{
    "contractName": "HealthCredentialNFT",
    "abi": [
        {
            "inputs": [
                {
                    "internalType": "address",
                    "name": "initialOwner",
                    "type": "address"
                }
            ],
            "stateMutability": "nonpayable",
            "type": "constructor"
        },
        {
            "inputs": [
                {
                    "internalType": "address",
                    "name": "sender",
                    "type": "address"
                },
                {
                    "internalType": "uint256",
                    "name": "tokenId",
                    "type": "uint256"
                },
                {
                    "internalType": "address",
                    "name": "owner",
                    "type": "address"
                }
            ],
            "name": "ERC721IncorrectOwner",
            "type": "error"
        },
        {
            "inputs": [
                {
                    "internalType": "address",
                    "name": "operator",
                    "type": "address"
                },
                {
                    "internalType": "uint256",
                    "name": "tokenId",
                    "type": "uint256"
                }
            ],
            "name": "ERC721InsufficientApproval",
            "type": "error"
        },
        {
            "inputs": [
                {
                    "internalType": "address",
                    "name": "approver",
                    "type": "address"
                }
            ],
            "name": "ERC721InvalidApprover",
            "type": "error"
        },
        {
            "inputs": [
                {
                    "internalType": "address",
                    "name": "operator",
                    "type": "address"
                }
            ],
            "name": "ERC721InvalidOperator",
            "type": "error"
        },
        {
            "inputs": [
                {
                    "internalType": "address",
                    "name": "owner",
                    "type": "address"
                }
            ],
            "name": "ERC721InvalidOwner",
            "type": "error"
        },
        {
            "inputs": [
                {
                    "internalType": "address",
                    "name": "receiver",
                    "type": "address"
                }
            ],
            "name": "ERC721InvalidReceiver",
            "type": "error"
        },
        {
            "inputs": [
                {
                    "internalType": "address",
                    "name": "sender",
                    "type": "address"
                }
            ],
            "name": "ERC721InvalidSender",
            "type": "error"
        },
        {
            "inputs": [
                {
                    "internalType": "uint256",
                    "name": "tokenId",
                    "type": "uint256"
                }
            ],
            "name": "ERC721NonexistentToken",
            "type": "error"
        },
        {
            "inputs": [
                {
                    "internalType": "address",
                    "name": "owner",
                    "type": "address"
                }
            ],
            "name": "OwnableInvalidOwner",
            "type": "error"
        },
        {
            "inputs": [
                {
                    "internalType": "address",
                    "name": "account",
                    "type": "address"
                }
            ],
            "name": "OwnableUnauthorizedAccount",
            "type": "error"
        },
        {
            "anonymous": false,
            "inputs": [
                {
                    "indexed": true,
                    "internalType": "address",
                    "name": "owner",
                    "type": "address"
                },
                {
                    "indexed": true,
                    "internalType": "address",
                    "name": "approved",
                    "type": "address"
                },
                {
                    "indexed": true,
                    "internalType": "uint256",
                    "name": "tokenId",
                    "type": "uint256"
                }
            ],
            "name": "Approval",
            "type": "event"
        },
        {
            "anonymous": false,
            "inputs": [
                {
                    "indexed": true,
                    "internalType": "address",
                    "name": "owner",
                    "type": "address"
                },
                {
                    "indexed": true,
                    "internalType": "address",
                    "name": "operator",
                    "type": "address"
                },
                {
                    "indexed": false,
                    "internalType": "bool",
                    "name": "approved",
                    "type": "bool"
                }
            ],
            "name": "ApprovalForAll",
            "type": "event"
        },
        {
            "anonymous": false,
            "inputs": [
                {
                    "indexed": false,
                    "internalType": "uint256",
                    "name": "_fromTokenId",
                    "type": "uint256"
                },
                {
                    "indexed": false,
                    "internalType": "uint256",
                    "name": "_toTokenId",
                    "type": "uint256"
                }
            ],
            "name": "BatchMetadataUpdate",
            "type": "event"
        },
        {
            "anonymous": false,
            "inputs": [
                {
                    "indexed": true,
                    "internalType": "uint256",
                    "name": "tokenId",
                    "type": "uint256"
                }
            ],
            "name": "CredentialRevoked",
            "type": "event"
        },
        {
            "anonymous": false,
            "inputs": [
                {
                    "indexed": false,
                    "internalType": "uint256",
                    "name": "_tokenId",
                    "type": "uint256"
                }
            ],
            "name": "MetadataUpdate",
            "type": "event"
        },
        {
            "anonymous": false,
            "inputs": [
                {
                    "indexed": true,
                    "internalType": "address",
                    "name": "previousOwner",
                    "type": "address"
                },
                {
                    "indexed": true,
                    "internalType": "address",
                    "name": "newOwner",
                    "type": "address"
                }
            ],
            "name": "OwnershipTransferred",
            "type": "event"
        },
        {
            "anonymous": false,
            "inputs": [
                {
                    "indexed": true,
                    "internalType": "address",
                    "name": "from",
                    "type": "address"
                },
                {
                    "indexed": true,
                    "internalType": "address",
                    "name": "to",
                    "type": "address"
                },
                {
                    "indexed": true,
                    "internalType": "uint256",
                    "name": "tokenId",
                    "type": "uint256"
                }
            ],
            "name": "Transfer",
            "type": "event"
        },
        {
            "inputs": [
                {
                    "internalType": "address",
                    "name": "to",
                    "type": "address"
                },
                {
                    "internalType": "uint256",
                    "name": "tokenId",
                    "type": "uint256"
                }
            ],
            "name": "approve",
            "outputs": [],
            "stateMutability": "nonpayable",
            "type": "function"
        },
        {
            "inputs": [
                {
                    "internalType": "address",
                    "name": "owner",
                    "type": "address"
                }
            ],
            "name": "balanceOf",
            "outputs": [
                {
                    "internalType": "uint256",
                    "name": "",
                    "type": "uint256"
                }
            ],
            "stateMutability": "view",
            "type": "function",
            "constant": true
        },
        {
            "inputs": [
                {
                    "internalType": "uint256",
                    "name": "tokenId",
                    "type": "uint256"
                }
            ],
            "name": "getApproved",
            "outputs": [
                {
                    "internalType": "address",
                    "name": "",
                    "type": "address"
                }
            ],
            "stateMutability": "view",
            "type": "function",
            "constant": true
        },
        {
            "inputs": [
                {
                    "internalType": "address",
                    "name": "owner",
                    "type": "address"
                },
                {
                    "internalType": "address",
                    "name": "operator",
                    "type": "address"
                }
            ],
            "name": "isApprovedForAll",
            "outputs": [
                {
                    "internalType": "bool",
                    "name": "",
                    "type": "bool"
                }
            ],
            "stateMutability": "view",
            "type": "function",
            "constant": true
        },
        {
            "inputs": [],
            "name": "name",
            "outputs": [
                {
                    "internalType": "string",
                    "name": "",
                    "type": "string"
                }
            ],
            "stateMutability": "view",
            "type": "function",
            "constant": true
        },
        {
            "inputs": [],
            "name": "owner",
            "outputs": [
                {
                    "internalType": "address",
                    "name": "",
                    "type": "address"
                }
            ],
            "stateMutability": "view",
            "type": "function",
            "constant": true
        },
        {
            "inputs": [
                {
                    "internalType": "uint256",
                    "name": "tokenId",
                    "type": "uint256"
                }
            ],
            "name": "ownerOf",
            "outputs": [
                {
                    "internalType": "address",
                    "name": "",
                    "type": "address"
                }
            ],
            "stateMutability": "view",
            "type": "function",
            "constant": true
        },
        {
            "inputs": [],
            "name": "renounceOwnership",
            "outputs": [],
            "stateMutability": "nonpayable",
            "type": "function"
        },
        {
            "inputs": [
                {
                    "internalType": "address",
                    "name": "from",
                    "type": "address"
                },
                {
                    "internalType": "address",
                    "name": "to",
                    "type": "address"
                },
                {
                    "internalType": "uint256",
                    "name": "tokenId",
                    "type": "uint256"
                }
            ],
            "name": "safeTransferFrom",
            "outputs": [],
            "stateMutability": "nonpayable",
            "type": "function"
        },
        {
            "inputs": [
                {
                    "internalType": "address",
                    "name": "from",
                    "type": "address"
                },
                {
                    "internalType": "address",
                    "name": "to",
                    "type": "address"
                },
                {
                    "internalType": "uint256",
                    "name": "tokenId",
                    "type": "uint256"
                },
                {
                    "internalType": "bytes",
                    "name": "data",
                    "type": "bytes"
                }
            ],
            "name": "safeTransferFrom",
            "outputs": [],
            "stateMutability": "nonpayable",
            "type": "function"
        },
        {
            "inputs": [
                {
                    "internalType": "address",
                    "name": "operator",
                    "type": "address"
                },
                {
                    "internalType": "bool",
                    "name": "approved",
                    "type": "bool"
                }
            ],
            "name": "setApprovalForAll",
            "outputs": [],
            "stateMutability": "nonpayable",
            "type": "function"
        },
        {
            "inputs": [
                {
                    "internalType": "bytes4",
                    "name": "interfaceId",
                    "type": "bytes4"
                }
            ],
            "name": "supportsInterface",
            "outputs": [
                {
                    "internalType": "bool",
                    "name": "",
                    "type": "bool"
                }
            ],
            "stateMutability": "view",
            "type": "function",
            "constant": true
        },
        {
            "inputs": [],
            "name": "symbol",
            "outputs": [
                {
                    "internalType": "string",
                    "name": "",
                    "type": "string"
                }
            ],
            "stateMutability": "view",
            "type": "function",
            "constant": true
        },
        {
            "inputs": [
                {
                    "internalType": "uint256",
                    "name": "tokenId",
                    "type": "uint256"
                }
            ],
            "name": "tokenURI",
            "outputs": [
                {
                    "internalType": "string",
                    "name": "",
                    "type": "string"
                }
            ],
            "stateMutability": "view",
            "type": "function",
            "constant": true
        },
        {
            "inputs": [
                {
                    "internalType": "address",
                    "name": "from",
                    "type": "address"
                },
                {
                    "internalType": "address",
                    "name": "to",
                    "type": "address"
                },
                {
                    "internalType": "uint256",
                    "name": "tokenId",
                    "type": "uint256"
                }
            ],
            "name": "transferFrom",
            "outputs": [],
            "stateMutability": "nonpayable",
            "type": "function"
        },
        {
            "inputs": [
                {
                    "internalType": "address",
                    "name": "newOwner",
                    "type": "address"
                }
            ],
            "name": "transferOwnership",
            "outputs": [],
            "stateMutability": "nonpayable",
            "type": "function"
        },
        {
            "inputs": [
                {
                    "internalType": "address",
                    "name": "to",
                    "type": "address"
                },
                {
                    "internalType": "string",
                    "name": "tokenURI",
                    "type": "string"
                },
                {
                    "internalType": "uint256",
                    "name": "expirationTimestamp",
                    "type": "uint256"
                }
            ],
            "name": "mintTo",
            "outputs": [
                {
                    "internalType": "uint256",
                    "name": "",
                    "type": "uint256"
                }
            ],
            "stateMutability": "nonpayable",
            "type": "function"
        },
        {
            "inputs": [
                {
                    "internalType": "uint256",
                    "name": "tokenId",
                    "type": "uint256"
                }
            ],
            "name": "revoke",
            "outputs": [],
            "stateMutability": "nonpayable",
            "type": "function"
        },
        {
            "inputs": [
                {
                    "internalType": "uint256",
                    "name": "tokenId",
                    "type": "uint256"
                }
            ],
            "name": "getExpirationTimestamp",
            "outputs": [
                {
                    "internalType": "uint256",
                    "name": "",
                    "type": "uint256"
                }
            ],
            "stateMutability": "view",
            "type": "function",
            "constant": true
        },
        {
            "inputs": [
                {
                    "internalType": "uint256",
                    "name": "tokenId",
                    "type": "uint256"
                }
            ],
            "name": "isExpired",
            "outputs": [
                {
                    "internalType": "bool",
                    "name": "",
                    "type": "bool"
                }
            ],
            "stateMutability": "view",
            "type": "function",
            "constant": true
        },
        {
            "inputs": [
                {
                    "internalType": "uint256",
                    "name": "tokenId",
                    "type": "uint256"
                }
            ],
            "name": "isRevoked",
            "outputs": [
                {
                    "internalType": "bool",
                    "name": "",
                    "type": "bool"
                }
            ],
            "stateMutability": "view",
            "type": "function",
            "constant": true
        }
    ],
    "bytecode": "0x608060405234801562000010575f80fd5b50604051620018083803806200180883398101604081905262000033916200013c565b806040518060400160405280601581526020017f4865616c74682043726564656e7469616c204e46540000000000000000000000815250604051806040016040528060058152602001641210d3919560da1b815250815f90816200009891906200020b565b506001620000a782826200020b565b5050506001600160a01b038116620000d857604051631e4fbdf760e01b81525f600482015260240160405180910390fd5b620000e381620000eb565b5050620002d3565b600780546001600160a01b038381166001600160a01b0319831681179093556040519116919082907f8be0079c531659141344cd1fd0a4f28419497f9722a3daafe3b4186f6b6457e0905f90a35050565b5f602082840312156200014d575f80fd5b81516001600160a01b038116811462000164575f80fd5b9392505050565b634e487b7160e01b5f52604160045260245ffd5b600181811c908216806200019457607f821691505b602082108103620001b357634e487b7160e01b5f52602260045260245ffd5b50919050565b601f82111562000206575f81815260208120601f850160051c81016020861015620001e15750805b601f850160051c820191505b818110156200020257828155600101620001ed565b5050505b505050565b81516001600160401b038111156200022757620002276200016b565b6200023f816200023884546200017f565b84620001b9565b602080601f83116001811462000275575f84156200025d5750858301515b5f19600386901b1c1916600185901b17855562000202565b5f85815260208120601f198616915b82811015620002a55788860151825594840194600190910190840162000284565b5085821015620002c357878501515f19600388901b60f8161c191681555b5050505050600190811b01905550565b61152780620002e15f395ff3fe608060405234801561000f575f80fd5b5060043610610132575f3560e01c806370a08231116100b4578063b88d4fde11610079578063b88d4fde1461027a578063c87b56dd1461028d578063d9548e53146102a0578063d9e5896e146102b3578063e985e9c5146102c6578063f2fde38b146102d9575f80fd5b806370a0823114610233578063715018a6146102465780638da5cb5b1461024e57806395d89b411461025f578063a22cb46514610267575f80fd5b806323b872dd116100fa57806323b872dd146101c657806324e263a9146101d957806342842e0e146101fa5780635ccc561e1461020d5780636352211e14610220575f80fd5b806301ffc9a71461013657806306fdde031461015e578063081812fc14610173578063095ea7b31461019e57806320c5429b146101b3575b5f80fd5b610149610144366004611020565b6102ec565b60405190151581526020015b60405180910390f35b610166610316565b6040516101559190611088565b61018661018136600461109a565b6103a5565b6040516001600160a01b039091168152602001610155565b6101b16101ac3660046110cc565b6103cc565b005b6101b16101c136600461109a565b6103db565b6101b16101d43660046110f4565b61042f565b6101ec6101e73660046111b4565b6104bd565b604051908152602001610155565b6101b16102083660046110f4565b61055d565b61014961021b36600461109a565b61057c565b61018661022e36600461109a565b61059c565b6101ec61024136600461121a565b6105a6565b6101b16105eb565b6007546001600160a01b0316610186565b6101666105fe565b6101b1610275366004611233565b61060d565b6101b161028836600461126c565b610618565b61016661029b36600461109a565b610630565b6101496102ae36600461109a565b61073b565b6101ec6102c136600461109a565b61076a565b6101496102d43660046112e3565b610787565b6101b16102e736600461121a565b6107b4565b5f6001600160e01b03198216632483248360e11b14806103105750610310826107f1565b92915050565b60605f805461032490611314565b80601f016020809104026020016040519081016040528092919081815260200182805461035090611314565b801561039b5780601f106103725761010080835404028352916020019161039b565b820191905f5260205f20905b81548152906001019060200180831161037e57829003601f168201915b5050505050905090565b5f6103af82610840565b505f828152600460205260409020546001600160a01b0316610310565b6103d7828233610878565b5050565b6103e3610885565b6103ec8161059c565b505f818152600a6020526040808220805460ff191660011790555182917f0d47d5695004d2a4180ebb40037756439184993a0d1c6d4a8ff3a6aa9325607491a250565b6001600160a01b03821661045d57604051633250574960e11b81525f60048201526024015b60405180910390fd5b5f6104698383336108b2565b9050836001600160a01b0316816001600160a01b0316146104b7576040516364283d7b60e01b81526001600160a01b0380861660048301526024820184905282166044820152606401610454565b50505050565b5f6104c6610885565b4282116105155760405162461bcd60e51b815260206004820181905260248201527f45787069726174696f6e206d75737420626520696e20746865206675747572656044820152606401610454565b60085461052285826109a4565b61052c8185610a05565b5f818152600960205260408120849055600880546001929061054f90849061134c565b909155509095945050505050565b61057783838360405180602001604052805f815250610618565b505050565b5f6105868261059c565b50505f908152600a602052604090205460ff1690565b5f61031082610840565b5f6001600160a01b0382166105d0576040516322718ad960e21b81525f6004820152602401610454565b506001600160a01b03165f9081526003602052604090205490565b6105f3610885565b6105fc5f610a54565b565b60606001805461032490611314565b6103d7338383610aa5565b61062384848461042f565b6104b73385858585610b43565b606061063b82610840565b505f828152600660205260408120805461065490611314565b80601f016020809104026020016040519081016040528092919081815260200182805461068090611314565b80156106cb5780601f106106a2576101008083540402835291602001916106cb565b820191905f5260205f20905b8154815290600101906020018083116106ae57829003601f168201915b505050505090505f6106e760408051602081019091525f815290565b905080515f036106f8575092915050565b81511561072a57808260405160200161071292919061136b565b60405160208183030381529060405292505050919050565b61073384610c6b565b949350505050565b5f6107458261059c565b505f8281526009602052604090205480158015906107635750804210155b9392505050565b5f6107748261059c565b50505f9081526009602052604090205490565b6001600160a01b039182165f90815260056020908152604080832093909416825291909152205460ff1690565b6107bc610885565b6001600160a01b0381166107e557604051631e4fbdf760e01b81525f6004820152602401610454565b6107ee81610a54565b50565b5f6001600160e01b031982166380ac58cd60e01b148061082157506001600160e01b03198216635b5e139f60e01b145b8061031057506301ffc9a760e01b6001600160e01b0319831614610310565b5f818152600260205260408120546001600160a01b03168061031057604051637e27328960e01b815260048101849052602401610454565b6105778383836001610cdb565b6007546001600160a01b031633146105fc5760405163118cdaa760e01b8152336004820152602401610454565b5f828152600260205260408120546001600160a01b03908116908316156108de576108de818486610ddf565b6001600160a01b03811615610918576108f95f855f80610cdb565b6001600160a01b0381165f90815260036020526040902080545f190190555b6001600160a01b03851615610946576001600160a01b0385165f908152600360205260409020805460010190555b5f8481526002602052604080822080546001600160a01b0319166001600160a01b0389811691821790925591518793918516917fddf252ad1be2c89b69c2b068fc378daa952ba7f163c4a11628f55a4df523b3ef91a4949350505050565b6001600160a01b0382166109cd57604051633250574960e11b81525f6004820152602401610454565b5f6109d983835f6108b2565b90506001600160a01b03811615610577576040516339e3563760e11b81525f6004820152602401610454565b5f828152600660205260409020610a1c82826113de565b506040518281527ff8e1a15aba9398e019f0b49df1a4fde98ee17ae345cb5f6b5e2c27f5033e8ce79060200160405180910390a15050565b600780546001600160a01b038381166001600160a01b0319831681179093556040519116919082907f8be0079c531659141344cd1fd0a4f28419497f9722a3daafe3b4186f6b6457e0905f90a35050565b6001600160a01b038216610ad757604051630b61174360e31b81526001600160a01b0383166004820152602401610454565b6001600160a01b038381165f81815260056020908152604080832094871680845294825291829020805460ff191686151590811790915591519182527f17307eab39ab6107e8899845ad3d59bd9653f200f220920489ca2b5937696c31910160405180910390a3505050565b6001600160a01b0383163b15610c6457604051630a85bd0160e11b81526001600160a01b0384169063150b7a0290610b8590889088908790879060040161149a565b6020604051808303815f875af1925050508015610bbf575060408051601f3d908101601f19168201909252610bbc918101906114d6565b60015b610c26573d808015610bec576040519150601f19603f3d011682016040523d82523d5f602084013e610bf1565b606091505b5080515f03610c1e57604051633250574960e11b81526001600160a01b0385166004820152602401610454565b805160208201fd5b6001600160e01b03198116630a85bd0160e11b14610c6257604051633250574960e11b81526001600160a01b0385166004820152602401610454565b505b5050505050565b6060610c7682610840565b505f610c8c60408051602081019091525f815290565b90505f815111610caa5760405180602001604052805f815250610763565b80610cb484610e43565b604051602001610cc592919061136b565b6040516020818303038152906040529392505050565b8080610cef57506001600160a01b03821615155b15610db0575f610cfe84610840565b90506001600160a01b03831615801590610d2a5750826001600160a01b0316816001600160a01b031614155b8015610d3d5750610d3b8184610787565b155b15610d665760405163a9fbf51f60e01b81526001600160a01b0384166004820152602401610454565b8115610dae5783856001600160a01b0316826001600160a01b03167f8c5be1e5ebec7d5bd14f71427d1e84f3dd0314c0f7b2291e5b200ac8c7c3b92560405160405180910390a45b505b50505f90815260046020526040902080546001600160a01b0319166001600160a01b0392909216919091179055565b610dea838383610ed3565b610577576001600160a01b038316610e1857604051637e27328960e01b815260048101829052602401610454565b60405163177e802f60e01b81526001600160a01b038316600482015260248101829052604401610454565b60605f610e4f83610f34565b60010190505f8167ffffffffffffffff811115610e6e57610e6e61112d565b6040519080825280601f01601f191660200182016040528015610e98576020820181803683370190505b5090508181016020015b5f19016f181899199a1a9b1b9c1cb0b131b232b360811b600a86061a8153600a8504945084610ea257509392505050565b5f6001600160a01b038316158015906107335750826001600160a01b0316846001600160a01b03161480610f0c5750610f0c8484610787565b806107335750505f908152600460205260409020546001600160a01b03908116911614919050565b5f8072184f03e93ff9f4daa797ed6e38ed64bf6a1f0160401b8310610f725772184f03e93ff9f4daa797ed6e38ed64bf6a1f0160401b830492506040015b6d04ee2d6d415b85acef81000000008310610f9e576d04ee2d6d415b85acef8100000000830492506020015b662386f26fc100008310610fbc57662386f26fc10000830492506010015b6305f5e1008310610fd4576305f5e100830492506008015b6127108310610fe857612710830492506004015b60648310610ffa576064830492506002015b600a83106103105760010192915050565b6001600160e01b0319811681146107ee575f80fd5b5f60208284031215611030575f80fd5b81356107638161100b565b5f5b8381101561105557818101518382015260200161103d565b50505f910152565b5f815180845261107481602086016020860161103b565b601f01601f19169290920160200192915050565b602081525f610763602083018461105d565b5f602082840312156110aa575f80fd5b5035919050565b80356001600160a01b03811681146110c7575f80fd5b919050565b5f80604083850312156110dd575f80fd5b6110e6836110b1565b946020939093013593505050565b5f805f60608486031215611106575f80fd5b61110f846110b1565b925061111d602085016110b1565b9150604084013590509250925092565b634e487b7160e01b5f52604160045260245ffd5b5f67ffffffffffffffff8084111561115b5761115b61112d565b604051601f8501601f19908116603f011681019082821181831017156111835761118361112d565b8160405280935085815286868601111561119b575f80fd5b858560208301375f602087830101525050509392505050565b5f805f606084860312156111c6575f80fd5b6111cf846110b1565b9250602084013567ffffffffffffffff8111156111ea575f80fd5b8401601f810186136111fa575f80fd5b61120986823560208401611141565b925050604084013590509250925092565b5f6020828403121561122a575f80fd5b610763826110b1565b5f8060408385031215611244575f80fd5b61124d836110b1565b915060208301358015158114611261575f80fd5b809150509250929050565b5f805f806080858703121561127f575f80fd5b611288856110b1565b9350611296602086016110b1565b925060408501359150606085013567ffffffffffffffff8111156112b8575f80fd5b8501601f810187136112c8575f80fd5b6112d787823560208401611141565b91505092959194509250565b5f80604083850312156112f4575f80fd5b6112fd836110b1565b915061130b602084016110b1565b90509250929050565b600181811c9082168061132857607f821691505b60208210810361134657634e487b7160e01b5f52602260045260245ffd5b50919050565b8082018082111561031057634e487b7160e01b5f52601160045260245ffd5b5f835161137c81846020880161103b565b83519083019061139081836020880161103b565b01949350505050565b601f821115610577575f81815260208120601f850160051c810160208610156113bf5750805b601f850160051c820191505b81811015610c62578281556001016113cb565b815167ffffffffffffffff8111156113f8576113f861112d565b61140c816114068454611314565b84611399565b602080601f83116001811461143f575f84156114285750858301515b5f19600386901b1c1916600185901b178555610c62565b5f85815260208120601f198616915b8281101561146d5788860151825594840194600190910190840161144e565b508582101561148a57878501515f19600388901b60f8161c191681555b5050505050600190811b01905550565b6001600160a01b03858116825284166020820152604081018390526080606082018190525f906114cc9083018461105d565b9695505050505050565b5f602082840312156114e6575f80fd5b81516107638161100b56fea264697066735822122035a58e784993f267e772e4c69ec50add5ce377792c02468daad6307b02b8066264736f6c63430008150033",
    "immutableReferences": {},
    "source": "// SPDX-License-Identifier: MIT\r\npragma solidity ^0.8.20;\r\n\r\nimport \"@openzeppelin/contracts/token/ERC721/extensions/ERC721URIStorage.sol\";\r\nimport \"@openzeppelin/contracts/access/Ownable.sol\";\r\n\r\n/**\r\n * @title HealthCredentialNFT\r\n * @dev An ERC721 token for minting and revoking health credentials.\r\n */\r\ncontract HealthCredentialNFT is ERC721URIStorage, Ownable {\r\n    uint256 private _tokenIdCounter;\r\n    \r\n    // Mapping from token ID to its expiration Unix timestamp.\r\n    mapping(uint256 => uint256) private _expirationTimestamps;\r\n    \r\n    // --- NEW: Add a mapping to track revoked tokens ---\r\n    mapping(uint256 => bool) private _isRevoked;\r\n\r\n    // --- NEW: Add an event to announce revocations ---\r\n    event CredentialRevoked(uint256 indexed tokenId);\r\n\r\n    /**\r\n     * @dev Sets the contract name, symbol, and initial owner.\r\n     */\r\n    constructor(address initialOwner)\r\n        ERC721(\"Health Credential NFT\", \"HCNFT\")\r\n        Ownable(initialOwner)\r\n    {}\r\n\r\n    /**\r\n     * @dev Mints a new token and assigns it to `to`, with an expiration date.\r\n     * Can only be called by the contract owner.\r\n     */\r\n    function mintTo(address to, string memory tokenURI, uint256 expirationTimestamp) public onlyOwner returns (uint256) {\r\n        require(expirationTimestamp > block.timestamp, \"Expiration must be in the future\");\r\n        \r\n        uint256 tokenId = _tokenIdCounter;\r\n        _mint(to, tokenId);\r\n        _setTokenURI(tokenId, tokenURI);\r\n        _expirationTimestamps[tokenId] = expirationTimestamp;\r\n        _tokenIdCounter += 1;\r\n        \r\n        return tokenId;\r\n    }\r\n\r\n    // --- NEW: Create the revoke function ---\r\n    /**\r\n     * @dev Revokes a token, marking it as invalid.\r\n     * Can only be called by the contract owner.\r\n     * @param tokenId The ID of the token to revoke.\r\n     */\r\n    function revoke(uint256 tokenId) public onlyOwner {\r\n        // Ensure the token exists before revoking\r\n        ownerOf(tokenId); \r\n        _isRevoked[tokenId] = true;\r\n        emit CredentialRevoked(tokenId);\r\n    }\r\n    \r\n    /**\r\n     * @dev Returns the Unix timestamp for when a token expires.\r\n     */\r\n    function getExpirationTimestamp(uint256 tokenId) public view returns (uint256) {\r\n        ownerOf(tokenId); \r\n        return _expirationTimestamps[tokenId];\r\n    }\r\n    \r\n    /**\r\n     * @dev Checks if a credential has expired.\r\n     */\r\n    function isExpired(uint256 tokenId) public view returns (bool) {\r\n        ownerOf(tokenId);\r\n        uint256 expiration = _expirationTimestamps[tokenId];\r\n        return expiration > 0 && block.timestamp >= expiration;\r\n    }\r\n\r\n    // --- NEW: Create a public view function to check revocation status ---\r\n    /**\r\n     * @dev Checks if a credential has been revoked.\r\n     * @param tokenId The ID of the token to check.\r\n     * @return True if the token has been revoked.\r\n     */\r\n    function isRevoked(uint256 tokenId) public view returns (bool) {\r\n        ownerOf(tokenId);\r\n        return _isRevoked[tokenId];\r\n    }\r\n\r\n    /**\r\n     * @dev Base URI for computing `tokenURI`.\r\n     */\r\n    function _baseURI() internal pure override returns (string memory) {\r\n        return \"\";\r\n    }\r\n}",
    "sourcePath": "D:\\Projects\\health-credential-wallet-dapp\\contracts\\HealthCredentialNFT.sol",
    "compiler": {
        "name": "solc",
        "version": "0.8.21+commit.d9974bed.Emscripten.clang"
    },
    "schemaVersion": "3.4.16",
    "updatedAt": "2025-10-04T09:55:04.434Z",
    "networkType": "ethereum",
    "devdoc": {
        "details": "An ERC721 token for minting and revoking health credentials.",
        "errors": {
            "ERC721IncorrectOwner(address,uint256,address)": [
                {
                    "details": "Indicates an error related to the ownership over a particular token. Used in transfers.",
                    "params": {
                        "owner": "Address of the current owner of a token.",
                        "sender": "Address whose tokens are being transferred.",
                        "tokenId": "Identifier number of a token."
                    }
                }
            ],
            "ERC721InsufficientApproval(address,uint256)": [
                {
                    "details": "Indicates a failure with the `operator`s approval. Used in transfers.",
                    "params": {
                        "operator": "Address that may be allowed to operate on tokens without being their owner.",
                        "tokenId": "Identifier number of a token."
                    }
                }
            ],
            "ERC721InvalidApprover(address)": [
                {
                    "details": "Indicates a failure with the `approver` of a token to be approved. Used in approvals.",
                    "params": {
                        "approver": "Address initiating an approval operation."
                    }
                }
            ],
            "ERC721InvalidOperator(address)": [
                {
                    "details": "Indicates a failure with the `operator` to be approved. Used in approvals.",
                    "params": {
                        "operator": "Address that may be allowed to operate on tokens without being their owner."
                    }
                }
            ],
            "ERC721InvalidOwner(address)": [
                {
                    "details": "Indicates that an address can't be an owner. For example, `address(0)` is a forbidden owner in ERC-20. Used in balance queries.",
                    "params": {
                        "owner": "Address of the current owner of a token."
                    }
                }
            ],
            "ERC721InvalidReceiver(address)": [
                {
                    "details": "Indicates a failure with the token `receiver`. Used in transfers.",
                    "params": {
                        "receiver": "Address to which tokens are being transferred."
                    }
                }
            ],
            "ERC721InvalidSender(address)": [
                {
                    "details": "Indicates a failure with the token `sender`. Used in transfers.",
                    "params": {
                        "sender": "Address whose tokens are being transferred."
                    }
                }
            ],
            "ERC721NonexistentToken(uint256)": [
                {
                    "details": "Indicates a `tokenId` whose `owner` is the zero address.",
                    "params": {
                        "tokenId": "Identifier number of a token."
                    }
                }
            ],
            "OwnableInvalidOwner(address)": [
                {
                    "details": "The owner is not a valid owner account. (eg. `address(0)`)"
                }
            ],
            "OwnableUnauthorizedAccount(address)": [
                {
                    "details": "The caller account is not authorized to perform an operation."
                }
            ]
        },
        "events": {
            "Approval(address,address,uint256)": {
                "details": "Emitted when `owner` enables `approved` to manage the `tokenId` token."
            },
            "ApprovalForAll(address,address,bool)": {
                "details": "Emitted when `owner` enables or disables (`approved`) `operator` to manage all of its assets."
            },
            "BatchMetadataUpdate(uint256,uint256)": {
                "details": "This event emits when the metadata of a range of tokens is changed. So that the third-party platforms such as NFT market could timely update the images and related attributes of the NFTs."
            },
            "MetadataUpdate(uint256)": {
                "details": "This event emits when the metadata of a token is changed. So that the third-party platforms such as NFT market could timely update the images and related attributes of the NFT."
            },
            "Transfer(address,address,uint256)": {
                "details": "Emitted when `tokenId` token is transferred from `from` to `to`."
            }
        },
        "kind": "dev",
        "methods": {
            "approve(address,uint256)": {
                "details": "Gives permission to `to` to transfer `tokenId` token to another account. The approval is cleared when the token is transferred. Only a single account can be approved at a time, so approving the zero address clears previous approvals. Requirements: - The caller must own the token or be an approved operator. - `tokenId` must exist. Emits an {Approval} event."
            },
            "balanceOf(address)": {
                "details": "Returns the number of tokens in ``owner``'s account."
            },
            "constructor": {
                "details": "Sets the contract name, symbol, and initial owner."
            },
            "getApproved(uint256)": {
                "details": "Returns the account approved for `tokenId` token. Requirements: - `tokenId` must exist."
            },
            "getExpirationTimestamp(uint256)": {
                "details": "Returns the Unix timestamp for when a token expires."
            },
            "isApprovedForAll(address,address)": {
                "details": "Returns if the `operator` is allowed to manage all of the assets of `owner`. See {setApprovalForAll}"
            },
            "isExpired(uint256)": {
                "details": "Checks if a credential has expired."
            },
            "isRevoked(uint256)": {
                "details": "Checks if a credential has been revoked.",
                "params": {
                    "tokenId": "The ID of the token to check."
                },
                "returns": {
                    "_0": "True if the token has been revoked."
                }
            },
            "mintTo(address,string,uint256)": {
                "details": "Mints a new token and assigns it to `to`, with an expiration date. Can only be called by the contract owner."
            },
            "name()": {
                "details": "Returns the token collection name."
            },
            "owner()": {
                "details": "Returns the address of the current owner."
            },
            "ownerOf(uint256)": {
                "details": "Returns the owner of the `tokenId` token. Requirements: - `tokenId` must exist."
            },
            "renounceOwnership()": {
                "details": "Leaves the contract without owner. It will not be possible to call `onlyOwner` functions. Can only be called by the current owner. NOTE: Renouncing ownership will leave the contract without an owner, thereby disabling any functionality that is only available to the owner."
            },
            "revoke(uint256)": {
                "details": "Revokes a token, marking it as invalid. Can only be called by the contract owner.",
                "params": {
                    "tokenId": "The ID of the token to revoke."
                }
            },
            "safeTransferFrom(address,address,uint256)": {
                "details": "Safely transfers `tokenId` token from `from` to `to`, checking first that contract recipients are aware of the ERC-721 protocol to prevent tokens from being forever locked. Requirements: - `from` cannot be the zero address. - `to` cannot be the zero address. - `tokenId` token must exist and be owned by `from`. - If the caller is not `from`, it must have been allowed to move this token by either {approve} or   {setApprovalForAll}. - If `to` refers to a smart contract, it must implement {IERC721Receiver-onERC721Received}, which is called upon   a safe transfer. Emits a {Transfer} event."
            },
            "safeTransferFrom(address,address,uint256,bytes)": {
                "details": "Safely transfers `tokenId` token from `from` to `to`. Requirements: - `from` cannot be the zero address. - `to` cannot be the zero address. - `tokenId` token must exist and be owned by `from`. - If the caller is not `from`, it must be approved to move this token by either {approve} or {setApprovalForAll}. - If `to` refers to a smart contract, it must implement {IERC721Receiver-onERC721Received}, which is called upon   a safe transfer. Emits a {Transfer} event."
            },
            "setApprovalForAll(address,bool)": {
                "details": "Approve or remove `operator` as an operator for the caller. Operators can call {transferFrom} or {safeTransferFrom} for any token owned by the caller. Requirements: - The `operator` cannot be the address zero. Emits an {ApprovalForAll} event."
            },
            "supportsInterface(bytes4)": {
                "details": "Returns true if this contract implements the interface defined by `interfaceId`. See the corresponding https://eips.ethereum.org/EIPS/eip-165#how-interfaces-are-identified[ERC section] to learn more about how these ids are created. This function call must use less than 30 000 gas."
            },
            "symbol()": {
                "details": "Returns the token collection symbol."
            },
            "tokenURI(uint256)": {
                "details": "Returns the Uniform Resource Identifier (URI) for `tokenId` token."
            },
            "transferFrom(address,address,uint256)": {
                "details": "Transfers `tokenId` token from `from` to `to`. WARNING: Note that the caller is responsible to confirm that the recipient is capable of receiving ERC-721 or else they may be permanently lost. Usage of {safeTransferFrom} prevents loss, though the caller must understand this adds an external call which potentially creates a reentrancy vulnerability. Requirements: - `from` cannot be the zero address. - `to` cannot be the zero address. - `tokenId` token must be owned by `from`. - If the caller is not `from`, it must be approved to move this token by either {approve} or {setApprovalForAll}. Emits a {Transfer} event."
            },
            "transferOwnership(address)": {
                "details": "Transfers ownership of the contract to a new account (`newOwner`). Can only be called by the current owner."
            }
        },
        "title": "HealthCredentialNFT",
        "version": 1
    },
    "userdoc": {
        "kind": "user",
        "methods": {},
        "version": 1
    }
}